:020000040000fa
:080000000010040000000000e4
:020000040000fa
:04000800ee170000ef
:020000040000fa
:04000c00ee170000eb
:020000040000fa
:04001000c810000014
:020000040000fa
:04001400d210000006
:020000040000fa
:04001800ee170000df
:020000040000fa
:04001c00ee170000db
:020000040000fa
:04002000ee170000d7
:020000040000fa
:04002400ee170000d3
:020000040000fa
:04002800ee170000cf
:020000040000fa
:04002c00ee170000cb
:020000040000fa
:04003000ee170000c7
:020000040000fa
:04003400d6170000db
:020000040000fa
:0400380004110000af
:020000040000fa
:04003c00ee170000bb
:020000040000fa
:04004000ee170000b7
:020000040000fa
:04004400f0100000b8
:020000040000fa
:04004800ee170000af
:020000040000fa
:04004c00ee170000ab
:020000040000fa
:04005000ee170000a7
:020000040000fa
:040054006a1300002b
:020000040000fa
:04005800ee1700009f
:020000040000fa
:04005c00dc100000b4
:020000040000fa
:04006000ee17000097
:020000040000fa
:04006400ee17000093
:020000040000fa
:04006800ee1700008f
:020000040000fa
:04006c00ee1700008b
:020000040000fa
:04007000ee17000087
:020000040000fa
:04007400ee17000083
:020000040000fa
:04007800ee1700007f
:020000040000fa
:04007c00ee1700007b
:020000040000fa
:04008000ee17000077
:020000040000fa
:04008400ee17000073
:020000040000fa
:04008800ee1700006f
:020000040000fa
:04008c00ee1700006b
:020000040000fa
:04009000ee17000067
:020000040000fa
:04009400ee17000063
:020000040000fa
:04009800ee1700005f
:020000040000fa
:04009c00ee1700005b
:020000040000fa
:0400a000a0150000a7
:020000040000fa
:0400a400ee17000053
:020000040000fa
:0400a800ee1700004f
:020000040000fa
:0400ac00ee1700004b
:020000040000fa
:0400b000ee17000047
:020000040000fa
:0400b400ee17000043
:020000040000fa
:0400b800ee1700003f
:020000040000fa
:0400bc00ee1700003b
:020000040000fa
:0400c000ee17000037
:020000040000fa
:0400c400ee17000033
:020000040000fa
:0400c800ee1700002f
:020000040000fa
:0400cc00ee1700002b
:020000040000fa
:0400d000ee17000027
:020000040000fa
:0400d400ee17000023
:020000040000fa
:0400d800ee1700001f
:020000040000fa
:0400dc00ee1700001b
:020000040000fa
:0400e000ee17000017
:020000040000fa
:0400e400ee17000013
:020000040000fa
:0400e800ee1700000f
:020000040000fa
:0400ec00ee1700000b
:020000040000fa
:0400f000ee17000007
:020000040000fa
:0400f400ee17000003
:020000040000fa
:0400f800ee170000ff
:020000040000fa
:0400fc00ee170000fb
:020000040000fa
:04010000ee170000f6
:020000040000fa
:04010400ee170000f2
:020000040000fa
:04010800ee170000ee
:020000040000fa
:04010c00ee170000ea
:020000040000fa
:04011000ee170000e6
:020000040000fa
:04011400ee170000e2
:020000040000fa
:04011800ee170000de
:020000040000fa
:04011c00ee170000da
:020000040000fa
:04012000ee170000d6
:020000040000fa
:04012400ee170000d2
:020000040000fa
:04012800ee170000ce
:020000040000fa
:04012c00ee170000ca
:020000040000fa
:04013000ee170000c6
:020000040000fa
:04013400ee170000c2
:020000040000fa
:04013800ee170000be
:020000040000fa
:04013c00ee170000ba
:020000040000fa
:04014000ee170000b6
:020000040000fa
:04014400ee170000b2
:020000040000fa
:04014800ee170000ae
:020000040000fa
:04014c00ee170000aa
:020000040000fa
:04015000ee170000a6
:020000040000fa
:04015400ee170000a2
:020000040000fa
:04015800ee1700009e
:020000040000fa
:04015c00ee1700009a
:020000040000fa
:04016000ee17000096
:020000040000fa
:04016400ee17000092
:020000040000fa
:04020800ee170000ed
:020000040000fa
:04020c00ee170000e9
:020000040000fa
:04021000ee170000e5
:020000040000fa
:04021400ee170000e1
:020000040000fa
:04021800ee170000dd
:020000040000fa
:04021c00ee170000d9
:020000040000fa
:04022000ee170000d5
:020000040000fa
:04022400ee170000d1
:020000040000fa
:04022800ee170000cd
:020000040000fa
:04022c00ee170000c9
:020000040000fa
:04023000ee170000c5
:020000040000fa
:04023400ee170000c1
:020000040000fa
:04023800ee170000bd
:020000040000fa
:04023c00ee170000b9
:020000040000fa
:04024000ee170000b5
:020000040000fa
:04024400ee170000b1
:020000040000fa
:04024800ee170000ad
:020000040000fa
:04024c00ee170000a9
:020000040000fa
:04025000ee170000a5
:020000040000fa
:04025400ee170000a1
:020000040000fa
:04025800ee1700009d
:020000040000fa
:04025c00ee17000099
:020000040000fa
:04026000ee17000095
:020000040000fa
:04026400ee17000091
:020000040000fa
:04026800ee1700008d
:020000040000fa
:04026c00ee17000089
:020000040000fa
:04027000ee17000085
:020000040000fa
:04027400ee17000081
:020000040000fa
:04027800ee1700007d
:020000040000fa
:04027c00ee17000079
:020000040000fa
:04028000ee17000075
:020000040000fa
:04028400ee17000071
:020000040000fa
:04028800ee1700006d
:020000040000fa
:04028c00ee17000069
:020000040000fa
:04029000ee17000065
:020000040000fa
:04029400ee17000061
:020000040000fa
:04029800ee1700005d
:020000040000fa
:04029c00ee17000059
:020000040000fa
:0402a000ee17000055
:020000040000fa
:0402a400ee17000051
:020000040000fa
:0402a800ee1700004d
:020000040000fa
:0402ac00ee17000049
:020000040000fa
:0402b000ee17000045
:020000040000fa
:0402b400ee17000041
:020000040000fa
:0402b800ee1700003d
:020000040000fa
:0402bc00ee17000039
:020000040000fa
:0402c000ee17000035
:020000040000fa
:0402c400ee17000031
:020000040000fa
:0402c800ee1700002d
:020000040000fa
:0402cc00ee17000029
:020000040000fa
:0402d000ee17000025
:020000040000fa
:0402d400ee17000021
:020000040000fa
:0402d800ee1700001d
:020000040000fa
:0402dc00ee17000019
:020000040000fa
:0402e000ee17000015
:020000040000fa
:0402e400ee17000011
:020000040000fa
:0402e800ee1700000d
:020000040000fa
:0402ec00ee17000009
:020000040000fa
:0402f000ee17000005
:020000040000fa
:0402f400ee17000001
:020000040000fa
:0402f800ee170000fd
:020000040000fa
:0402fc00ee170000f9
:020000040000fa
:04030000ee170000f4
:020000040000fa
:04030400ee170000f0
:020000040000fa
:04030800ee170000ec
:020000040000fa
:04030c00ee170000e8
:020000040000fa
:04031000ee170000e4
:020000040000fa
:04031400ee170000e0
:020000040000fa
:04031800ee170000dc
:020000040000fa
:04031c00ee170000d8
:020000040000fa
:04032000ee170000d4
:020000040000fa
:04032400ee170000d0
:020000040000fa
:04032800ee170000cc
:020000040000fa
:04032c00ee170000c8
:020000040000fa
:04033000ee170000c4
:020000040000fa
:04033400ee170000c0
:020000040000fa
:04033800ee170000bc
:020000040000fa
:04033c00ee170000b8
:020000040000fa
:04034000ee170000b4
:020000040000fa
:04034400ee170000b0
:020000040000fa
:04034800ee170000ac
:020000040000fa
:04034c00ee170000a8
:020000040000fa
:04035000ee170000a4
:020000040000fa
:04035400ee170000a0
:020000040000fa
:04035800ee1700009c
:020000040000fa
:04035c00ee17000098
:020000040000fa
:04036000ee17000094
:020000040000fa
:04036400ee17000090
:020000040000fa
:102000000fe421000e5f24000e0188000000000094
:10201000000020000000e00002003200000120006b
:102020002002880014000700300407000000e000d0
:1020300003003a0060022600010020000200370081
:102040000000200001002000810f7000010032001c
:1020500014000700000020000000e0000200320031
:1020600000000200000000004663020000000000c3
:102070000040da000000fe004440a900e086200095
:102080000000e0000300320000002000a0018800f2
:102090004440a800000006008a1f78008b1f7800cb
:1020a0000000060091018800800478000000eb0029
:1020b0001a003700e284440032a0b4009905ba0047
:1020c000e284440032a0b4009906ba00e2844400dd
:1020d00032a0b4000006eb00476fde00fd07b2003f
:1020e000636ce10003003a00ebff07000000eb0027
:1020f0000a003700606ce10004003a00005deb006c
:102100008b05e900fdff3e00040037006168e10037
:10211000010032000086eb000b00070019c7ba006f
:102120001905ba000e04e00003003a000a00e000be
:10213000e0ff3a0000000600fe07b2009e018800a2
:102140008a047800f5ff3700395dba008b05e90095
:102150000c003200295dba008b05e900080032004e
:102160000c00e00003003a00e284440032a0b40016
:10217000f5ff370019ddba008b05e900faff3a00d8
:102180008904e800e184440032a0b40000000600a5
:102190000000fa0000000000000000000080fa00cb
:1021a000004006000000fa000000000000000000ef
:1021b0000080fa00004006003400f800881f780014
:1021c00008002000a80188004f0478000000fa00f1
:1021d00085a0a9000080fa003400f9000040060044
:1021e0003400f800881f780008002000a80188004b
:1021f0004f0478000000fa0084e0a9000080fa0093
:102200003400f90000400600809fbe003400f80052
:1022100000002000a00188000400fa00c0418000f6
:102220000000e900c0418800c04180000000e000db
:1022300002003a0013e1a9008500a900b041800026
:102240000000e00090003a00d0428000e10f500012
:1022500025003200e20f5000440032000000e00090
:1022600062003a000000eb00000f78001900370010
:102270001e007800800040000060240000804000c4
:10228000100078004200de00100798009e009000c9
:10229000f00f2000808f500002003600f00f200069
:1022a000100798001e009000fa0f500002003a003c
:1022b000b001200010079800a04180009e0090000f
:1022c00081407800014878000000e800a0418800c3
:1022d0001e0fe800f00720009e007800808f50005d
:1022e000e3ff3400620037000000eb00000f7800cd
:1022f000190037001e0078008000400000602400b4
:1023000000804000100078000000d1001007980005
:102310009e009000f00f2000808f500002003600d9
:10232000f00f2000100798001e009000fa0f5000d8
:1023300002003a00b001200010079800a041800080
:102340009e00900081407800014878000000e8007d
:10235000a04188001e0fe800f00720009e007800d2
:10236000808f5000e3ff3400410037000000eb0095
:10237000000f7800180037001e0078008000400031
:102380000060240000804000900078001107980051
:102390009e009000f00f2000808f50000200360059
:1023a000f00f2000100798001e009000fa0f500058
:1023b00002003a00b001200010079800a041800000
:1023c0009e00900081407800014878000000e800fd
:1023d000a04188001e0fe800f00720009e00780052
:1023e000808f5000e4ff3400210037000000eb0034
:1023f000000f7800190037001e00780080004000b0
:102400000060240000804000100078004200de00e0
:10241000100798009e009000f00f2000808f500061
:1024200002003600f00f2000100798001e009000f8
:10243000fa0f500002003a00b00120001007980087
:10244000a04180009e009000814078000148780003
:102450000000e800a04188001e0fe800f0072000ff
:102460009e007800808f5000e3ff340000000000e1
:10247000104180000008b0001041880010002000ca
:10248000b04188008e003700d0428000e10f50003c
:1024900025003200e20f5000440032000000e0004e
:1024a00062003a000000eb00000f780019003700ce
:1024b0001e00780080004000007024000080400072
:1024c000100078004200de00100798009e00900087
:1024d000f00f2000808f500002003600f00f200027
:1024e000100798001e009000fa0f500002003a00fa
:1024f000b001200010079800a04180009e009000cd
:1025000081407800014878000000e800a041880080
:102510001e0fe800f00720009e007800808f50001a
:10252000e3ff3400620037000000eb00000f78008a
:10253000190037001e007800800040000070240061
:1025400000804000100078000000d10010079800c3
:102550009e009000f00f2000808f50000200360097
:10256000f00f2000100798001e009000fa0f500096
:1025700002003a00b001200010079800a04180003e
:102580009e00900081407800014878000000e8003b
:10259000a04188001e0fe800f00720009e00780090
:1025a000808f5000e3ff3400410037000000eb0053
:1025b000000f7800180037001e00780080004000ef
:1025c00000702400008040009000780011079800ff
:1025d0009e009000f00f2000808f50000200360017
:1025e000f00f2000100798001e009000fa0f500016
:1025f00002003a00b001200010079800a0418000be
:102600009e00900081407800014878000000e800ba
:10261000a04188001e0fe800f00720009e0078000f
:10262000808f5000e4ff3400210037000000eb00f1
:10263000000f7800190037001e007800800040006d
:102640000070240000804000100078004200de008e
:10265000100798009e009000f00f2000808f50001f
:1026600002003600f00f2000100798001e009000b6
:10267000fa0f500002003a00b00120001007980045
:10268000a04180009e0090008140780001487800c1
:102690000000e800a04188001e0fe800f0072000bd
:1026a0009e007800808f5000e3ff3400000000009f
:1026b000104180000008b000104188003628ef006b
:1026c0008480a9000080fa003400f9004f00be00a9
:1026d000004006003600f800809fbe00829fbe00ca
:1026e000849fbe00869fbe003400f80000002000da
:1026f000a00188000600fa00f141800000002800d7
:10270000008060000000e0000d0032003fe8a900fa
:1027100041118000010f78001e007800e30f500087
:1027200004003600700520009e007800808f500065
:10273000fa0036005005200040118800f7003700ed
:10274000101180006e0060000000e00012003200f6
:1027500010118000640060000000e0000b003200f7
:102760000000000051168000000021000080600081
:102770000000e000fbff3200729002000000000049
:1027800020a2a8003fe8a800e400370072900200f1
:1027900000000000e1003700301180002047980061
:1027a000504080008000eb00a200200003002000c9
:1027b000820f5000838f5800d6003e000060010059
:1027c0000a003700180037002800370034003700af
:1027d0004600370052003700640037006f003700b2
:1027e0007a00370097003700b8003700ae409000fd
:1027f00020c4b30080cf500008003a002e40900063
:102800000080fb00a04088003ea8a8005040800047
:102810000000e80050408800c000370072900200bd
:1028200000000000bd003700ae40900020c5b3009e
:1028300080cf500009003a002e4090008080fb00bd
:10284000a040800000804000a040880050408000f0
:102850000000e80050408800b00037000a28ef0070
:102860007290020000000000ac0037002e40900083
:102870008080fb0020802000010878002e4090001e
:102880008080fb00a040800000804000a0408800c5
:10289000504080000000e800504088009f00370052
:1028a0002e4090000080fb00200798002080200030
:1028b000900078002e0090004800dd0080804000ed
:1028c00020802000010878002e4090008080fb00ce
:1028d000a040800000804000a04088005040800060
:1028e0000000e800504088008c0037002e40900027
:1028f0008080fb0020802000110098002e40900076
:102900008080fb00a040800000804000a040880044
:10291000504080000000e800504088007f003700f1
:102920002e4090000080fb002007980020802000af
:10293000900090002e0090004800dd008080400054
:1029400020802000110098002e4090008080fb0025
:10295000a040800000804000a040880050408000df
:102960000000e800504088006c0037002080200004
:10297000ae409000414098002e4090008080fb00c7
:10298000a040800000804000a040880050408000af
:102990000000e800504088006000370020802000e0
:1029a000ae409000514098002e4090008080fb0087
:1029b000a040800000804000a0408800504080007f
:1029c0000000e800504088005400370020802000bc
:1029d000100078000000e00008003a002e4090004f
:1029e0008080fb0020802000310098005040800053
:1029f0000000e800504088000e003700b0032100be
:102a00006040880060408000ae409000014878003f
:102a10000000e800604088002e4090008080fb00ad
:102a2000a040800000804000a040880010002000ee
:102a300080408800504080000000e800504088003e
:102a40003600370020802000900078008040800011
:102a5000808f500008003e002e4090008080fb00d8
:102a60002080200031009800504080000000e800e5
:102a70005040880029003700804080000000e800b6
:102a8000804088008140800040062000808f5000f8
:102a90000300360072900200000000001f003700a3
:102aa00060408000ae409000014878000000e800df
:102ab000604088002e4090008080fb00a040800095
:102ac00000804000a0408800140037002e40900095
:102ad0000080fb002007980020802000b0009000bc
:102ae0002e0090004800dd00808040002080200003
:102af0003100980020802000b0009000a0408000ad
:102b0000808f500001003a003e68a8000a28ef00bc
:102b1000020037000a28ef00000000008560a900cd
:102b20000080fa003400f9004f03be004f02be00df
:102b30004f01be004f00be003600f9000040060005
:102b40003600f800809fbe00829fbe00849fbe00ba
:102b5000869fbe003400f80000002000a00188001d
:102b60000600fa00f14180000000280000806000ab
:102b70000000e0000d0032003fe8a900c111800014
:102b8000010f78001e007800e30f500004003600ab
:102b9000700520009e007800808f5000fa003600fb
:102ba00050052000c0118800f70037009011800008
:102bb0006e0060000000e000120032009011800002
:102bc000640060000000e0000b0032000000000024
:102bd0005116800000002400008060000000e0002a
:102be000fbff3200989002000000000030a2a80015
:102bf0003fe8a800e40037009890020000000000c1
:102c0000e1003700b011800020479800504080005c
:102c10008000eb00a200200003002000820f500083
:102c2000838f5800d6003e00006001000a00370084
:102c300018003700280037003400370046003700fe
:102c400052003700640037006f0037007a00370009
:102c500097003700b8003700ae40900020c4b300a2
:102c600080cf500008003a002e4090000080fb000a
:102c7000a04088003ea8a800504080000000e80066
:102c800050408800c000370098900200000000000b
:102c9000bd003700ae40900020c5b30080cf50008b
:102ca00009003a002e4090008080fb00a040800088
:102cb00000804000a0408800504080000000e800f4
:102cc00050408800b00037000a28ef0098900200ba
:102cd00000000000ac0037002e4090008080fb0018
:102ce00020802000010878002e4090008080fb00aa
:102cf000a040800000804000a0408800504080003c
:102d00000000e800504088009f0037002e409000ef
:102d10000080fb00200798002080200090007800b1
:102d20002e0090004800dd008080400020802000c0
:102d3000010878002e4090008080fb00a0408000b9
:102d400000804000a0408800504080000000e80063
:102d5000504088008c0037002e4090008080fb009f
:102d600020802000110098002e4090008080fb0001
:102d7000a040800000804000a040880050408000bb
:102d80000000e800504088007f0037002e4090008f
:102d90000080fb0020079800208020009000900019
:102da0002e0090004800dd00808040002080200040
:102db000110098002e4090008080fb00a040800011
:102dc00000804000a0408800504080000000e800e3
:102dd000504088006c00370020802000ae409000fa
:102de000414098002e4090008080fb00a040800071
:102df00000804000a0408800504080000000e800b3
:102e0000504088006000370020802000ae409000d5
:102e1000514098002e4090008080fb00a040800030
:102e200000804000a0408800504080000000e80082
:102e300050408800540037002080200010007800a7
:102e40000000e00008003a002e4090008080fb0067
:102e50002080200031009800504080000000e800f1
:102e6000504088000e003700b00321006040880009
:102e700060408000ae409000014878000000e8000b
:102e8000604088002e4090008080fb00a0408000c1
:102e900000804000a0408800100020008040880092
:102ea000504080000000e8005040880036003700a5
:102eb000208020009000780080408000808f5000ab
:102ec00008003e002e4090008080fb002080200003
:102ed00031009800504080000000e8005040880019
:102ee00029003700804080000000e8008040880012
:102ef0008140800040062000808f50000300360093
:102f000098900200000000001f0037006040800021
:102f1000ae409000014878000000e8006040880062
:102f20002e4090008080fb00a04080000080400088
:102f3000a0408800140037002e4090000080fb0065
:102f40002007980020802000b00090002e00900004
:102f50004800dd0080804000208020003100980083
:102f600020802000b0009000a0408000808f5000a2
:102f700001003a003e88a8000a28ef00020037004e
:102f80000a28ef000000000087c0a9000080fa00b6
:102f90003400f9004f03be004f02be004f01be00d7
:102fa0004f00be003600f90000400600809fbe00c2
:102fb0000000fa006044800071448000610040001d
:102fc000e080480060448800714488008460a90063
:102fd0000080fa004f00be00004006000040da000a
:102fe0000000fe000a00fa00e20f500034003e002c
:102ff00060428000e10f500003003200e20f5000f9
:1030000011003a000c003700032220000300e0000a
:1030100001003a000040da002002e2000200350020
:103020002822ef0021e2a8002342ab000d003a0065
:103030002342a8000b003700032320000300e00018
:1030400001003a000040da003002e20002003500e0
:103050003822ef0031e2a8003342ab0001003a0011
:103060003342a800820178000b0037003102fb00d8
:10307000e10f500004003a002322ab00feff3a00ab
:1030800024118800030037003322ab00feff3a0012
:10309000a41188008301e9000300e000f3ff3a0077
:1030a000e10f500003003a002302ab00feff3200a4
:1030b0000b0037003302ab00feff32000800370080
:1030c00033002000b3bf9f00c0bf9f00d1bf9f004f
:1030d000e2bf9f006a8057007c0e07006fb997001f
:1030e000020078000080fa000000060000000500e1
:1030f0003200f800910188008002780062004000f0
:103100003549ba00e08048003204e0000410a7000e
:10311000100032008301e9000e0032002549ba0098
:103120003204e0000410a7000a0032008301e90025
:10313000080032000408a300eeff320015c9ba00ef
:103140003204e0000410a700020032008301e9000d
:10315000e8ff3a003200f90000000600839f680093
:103160000100e00002003d0060001000e080180057
:103170000300e00002003d0060011100e081190041
:10318000050007004f00e00002003b006000100057
:10319000e0801800000006006022b800060220004f
:1031a0000000d0008180d2000482d2008582d2004b
:1031b0000000a0000202520083825a000300310086
:1031c0000202420083824a000000a1000603e900d7
:1031d000f3ff3a0000000600efff07000400be0006
:1031e00000000600889fbe008a9fbe003004420097
:1031f000b0844a0030054b0090854b006000b10060
:103200000898be000a90be000440e10005c8e10035
:1032100006d0e10007d8e10002003100680040005c
:103220001008e8004f05be004f04be000000060075
:10323000889fbe008a9fbe003004be002005be00ed
:103240000418540005985c0006185d0007985d009e
:10325000110020000440e10005c8e10006d0e100b3
:1032600007d8e100010039008000eb001088100051
:103270004f05be004f04be00000006001200fa0019
:10328000889fbe008a9fbe008c9fbe00e0b79f0053
:10329000f1b79f0082bf9f0093bf9f000605be004d
:1032a0000404be000000eb00d0b79f00c0b79f0031
:1032b000b0b79f00a0b79f0090b79f000006eb003b
:1032c0005fb19700cfb09700820141003fb09700f7
:1032d0000200e00004003d00370007007e80570038
:1032e000c0ff070003003700330007007e8057004f
:1032f000cfff0700dfb697000d00e0000c0035009f
:103300006fb29700ffb297000fbb97009fbb97006b
:1033100010002000010020006011b80000027200bf
:103320008182720002037300838373001b00070015
:103330000c06e80001042000810f5600e0ff3a006f
:103340000d00e00004003d000802be000a03be00bc
:103350007e805700a3ff07005fa897000000e000f1
:1033600005003a001fb29700afb297003fb3970035
:10337000cfb39700090007006fb09700ffb0970028
:103380000fb997009fb997004f06be004f05be00ca
:103390004f04be000080fa00000006000100070094
:1033a00000000600a4b79f00b5b79f00c6b79f00f6
:1033b000d7b79f00000006004f09de008281710030
:1033c000b3b79f004f01de00818040008280700013
:1033d000a1b79f008fb097004f09de0000004000aa
:1033e0000200700090b79f007fa897004f01de0099
:1033f000818040008280700081b79f000d0007002f
:103400004f3ade000000400004007000f0af9f0063
:10341000080007000402420085824a0006034b00b0
:1034200087834b00dfff07000802be000a03be00cf
:10343000000006002fb29700bfb297004fb397006d
:10344000dfb3970000000600881f780018002000f6
:10345000881f780089ff07008f87e9004f047800f4
:1034600000000600801feb0084ff07008f87e90043
:1034700000000600889fbe008a9fbe00e00f50003b
:10348000e08f5800e00f5900e08f59000c003d001c
:103490006044b8006055b8000000540081805c00b2
:1034a00002015d0083815d00180020001500070007
:1034b00008003d00180007000004eb00050037007d
:1034c0000004eb000f00070002003d00120007009f
:1034d00018002000dcff07000800e00006003200b2
:1034e0006022b8006033b8000000520081805a00aa
:1034f00002015b0083815b004f05be004f04be00ec
:1035000000000600e00f5200e08f5a00e00f5b0061
:10351000e08f5b00000006006044b8006055b80012
:103520000402540085825c0006035d0087835d0011
:1035300000000600889fbe008a9fbe008c1f780096
:10354000e00f5000e08f5800e00f5900e08f590065
:103550000d003d006044b8006055b8000000540004
:1035600081805c0002015d0083815d001c00200001
:103570000820e10009a8e1000ab0e1000bb8e10071
:103580000d003d00080037000006eb00e00f520080
:10359000e08f5a00e00f5b00e08f5b0006003d000b
:1035a0006044b8006055b8000402540085825c0095
:1035b00006035d0087835d00aaff07000c00e000a2
:1035c000060032006022b8006033b80000005200ec
:1035d00081805a0002015b0083815b004f06780006
:1035e0004f05be004f04be0000000600889fbe00cd
:1035f0008a9fbe008c1f78000006eb00e00f500091
:10360000e08f5800e00f5900e08f590007003d009f
:103610006044b8006055b8000000540081805c0030
:1036200002015d0083815d001c002000e00f52005c
:10363000e08f5a00e00f5b00e08f5b0007003d0069
:103640006044b8006055b8000402540085825c00f4
:1036500006035d0087835d000c00a2000c000700dc
:103660000c00e000060032006022b8006033b800b1
:103670000000520081805a0002015b0083815b00e0
:103680004f0678004f05be004f04be000000060044
:10369000889fbe008a9fbe008c9fbe000404b800b5
:1036a0000506b8008904460060854e000606b8008d
:1036b0000a054600e0854e000706b8008b05460067
:1036c000040eb800890446000a854e00e0854d00ce
:1036d000050eb8000a0546008b854e00060eb800a0
:1036e0008b0546000416b8000a0546008b854e007f
:1036f0000516b8008b054600041eb8008b05460071
:103700000800be000a01be004f06be004f05be0005
:103710004f04be0000000600800178000200370060
:10372000b15978000201e9000200e000fcff3a0014
:1037300000000600800178000200370081597800ff
:103740000201e9000200e000fcff3a000000060070
:103750000c00fa00889fbe0000047800f0ff2700ec
:10376000d0bf9f008004eb0099bf9f0088bf9f00df
:10377000a8bf9f00200c2000b0bf9f007881570099
:10378000cfb0970070805700920307000fb89700e2
:10379000094878008fb89700088050004f04be0099
:1037a0000080fa0000000600800078003104e0008c
:1037b000feff3a000080ea000080400000000600a2
:1037c0000a003700b04178000304e0000300320033
:1037d0000201e900b1cf5100040032008381fb00f7
:1037e0001480fb00008051000000060001027800f8
:1037f0000200e000f3ff3a000000050080017800bd
:10380000060037000201e900b142780085597800ce
:10381000030278000504e00006003200030278008d
:103820000200e000f7ff3a0002003700005aeb0008
:103830000201e9000200e000fcff3a00000006007f
:103840000c00fa00889fbe0000047800f0ff2700fb
:10385000d0bf9f008004eb0099bf9f0088bf9f00ee
:10386000a8bf9f00200c2000b0bf9f0078815700a8
:10387000cfb0970070805700100007000fb8970076
:10388000094878008fb89700088050004f04be00a8
:103890000080fa0000000600d00190000281510073
:1038a0004240a9000300340010017800014978006b
:1038b0000208e8000100780000000600f6874700d3
:1038c000889fbe008a9fbe008c9fbe008e1f78001e
:1038d00000057800a1b79f00020778008004eb0084
:1038e00090023700afb097008100e800a1b79f00b9
:1038f00051c2b300814f500003003a00afb09700af
:103900000004eb0011003700ba0090000000fb003b
:103910000168a300070032000901780080007800e8
:103920000a007800dcff07000000e00005003a0014
:103930007c0237008a007800e20b0700e10f4000ac
:10394000780232008904e80076023700010078002e
:1039500031417800d3c2b300834f51000c003200d4
:1039600007003c00edc15100834f51000a003200b6
:10397000ebc14100834f51000d003a0008003700b1
:1039800003c3b300834f510009003a00060037001b
:103990000830a000edff37000800a000ebff370063
:1039a0000810a000e9ff37000820a000e7ff37005b
:1039b0000818a300010032000800a1000838a30085
:1039c000010032000820a1008200fb000103b100c9
:1039d000e98f50000c003e00000178008000eb00f1
:1039e0006a08b900b201fb000303b1008080410006
:1039f000020078009201fb000303b100e98f51003f
:103a0000f7ff3600060037008000eb00a3c2b300ca
:103a1000834f510002003a00ce0078000000e80019
:103a20008005eb00e2c2b300904f110009003a009c
:103a300008e0a00064415100d04f110003003200a3
:103a4000000178000102780006003700ce057800fa
:103a50000000e80000017800090037006a58b9004a
:103a60008085410002007800b201fb000303b10031
:103a7000e98f5100f9ff360084007800f5ff370028
:103a800032407800a2b79f00c3c6b300834f5000f6
:103a9000250032000f003c0032c6b300824f5000b8
:103aa0008800320004003c000004e00022023200e2
:103ab0006b4151000f00370042c6b300824f5000e7
:103ac0001700320065414100824f500094003a00d7
:103ad0001300370032c7b300824f50001b00320082
:103ae00007003c0064415100824f5000100032003a
:103af0000241e800824f500089003a000f00370071
:103b000052c7b300824f50008a0032006341410027
:103b1000824f500082003a00e0df9f00090037002a
:103b2000e0df9f00850037000840a000d4ff370089
:103b3000e0df9f000860a00080003700e0df9f000a
:103b40000850a0000870a0007c003700e0df9f0054
:103b50004e007800000678000000e00001003a0006
:103b60002cd421000c0178000000eb00010037008c
:103b70000000e800e24178000304e000fcff3a00a6
:103b8000800678000b00e000030032008d8f5500a6
:103b9000010031008b0678008005eb008d8f50000e
:103ba000010036008d855000680464002a003a0048
:103bb000110037003a0090000068a30007003200af
:103bc00009017800010220000a00780032ff070096
:103bd0000000e00006003a00060037008a00780086
:103be00000022000370b0700e10f40000100320007
:103bf0008904e8008b05e9000b00e000edff3a00c6
:103c00008085eb00140037003a0090000068a300a4
:103c1000090032000c007800b000fb0000067800bc
:103c2000090178000a0078001bff07000000e0008f
:103c300008003a00080037008c0078003100fb00d3
:103c4000010678008a0078001e0b0700e10f400093
:103c5000010032008904e8000d0078008006e900c8
:103c60000000e000e8ff3a000800e000ad0132008b
:103c7000110037003a0090000068a30007003200ee
:103c800009017800010220000a00780002ff070005
:103c90000000e00006003a00060037008a007800c5
:103ca00000022000070b0700e10f40000100320076
:103cb0008904e8008b05e9000b00e000edff3a0005
:103cc000980137004e017800cf91de00c81ade005f
:103cd0004818dd004812de0004027000e4df9f0097
:103ce0000848a300080032000404e0000600320087
:103cf000e14f420004003200f4df9f0082e79f00a2
:103d00002d00200002003700f2df9f001d00200080
:103d1000e2fd2f000f0141000206e80099ff370085
:103d2000e0df9f00ecfd2f000f0646001d00200085
:103d300094ff3700e0df9f00080cb3000801780013
:103d4000020cb200700064000200e0000d003a00b6
:103d50000000e000020032004e06be000200370004
:103d60004e067800cfe6de00e00f5600e08f5e00e2
:103d70000a003d003800b30060061600e0861e0011
:103d8000060037000000e000020032004e06be00d0
:103d9000020037004e0678008006eb000b00e000c2
:103da00005003a008c8576000bf0a7008b05ea0031
:103db0008b05e900cf5dde0088017800030cb200be
:103dc000e3b79f0000042000808f510023003200e1
:103dd00003003c000300e000080032002d00370023
:103de000000820006fb29700800f52000d003200d3
:103df000000c2000800f520026003a00a2d42100bf
:103e000010c0b30064014100b20f5600a28f5e00e3
:103e10001f0039000040e800ea4f5000f9ff3a0067
:103e20001b00370010c0b300020120000300200077
:103e3000820f5600838f5e0015003900441add00a2
:103e4000cc11de00830172004411dd000040e80067
:103e5000e84f5000f6ff3a000d00370010c0b300e5
:103e60008200200003002000820f5600838f5e0036
:103e700007003900431add00cd11de008301720016
:103e80004311dd000040e800eb4f5000f6ff3a0020
:103e9000e0df9f006fd997000200fb008b0f5000fe
:103ea00002003d00ebdf9f0003003700808f5500cc
:103eb00001003d00800578000100e00003003200b1
:103ec00063006400010032008100e90008e8a300fb
:103ed000050032008b8f5000020034008b805000b0
:103ee000010037008000eb00efd997000300fb00d2
:103ef0000002eb00d4b79f00808f50000200340016
:103f000000805000d0b79f000828a3004000320076
:103f1000610164000818a3000f0032003a0090000d
:103f20000068a30006003200b10220000200e00099
:103f3000010032008180e800090178000d0037009f
:103f4000b00220000200e000010032000080e80022
:103f50008a0078000e0037000200e00010003200f6
:103f60003a0090000068a3000700320009017800c1
:103f7000010220000a00780047fe07000000e00070
:103f800006003a00060037008a0078000002200090
:103f90004c0a0700e10f4000010032008904e800ec
:103fa0005fb097000000e0005a003200bcb79f00ed
:103fb000cdb79f00800678003a0090000068a3000b
:103fc0000700320009017800010320000a00780090
:103fd00031fe07000000e00006003a00060037004e
:103fe0008a00780000032000360a0700e10f400035
:103ff000010032008904e8008d06e900eeff3a0076
:10400000ddb79f003fb69700cfb69700410037005d
:10401000dfb197000300e0001a0032000838a30067
:1040200018003a00bcb79f00cdb79f008306780008
:104030003a0090000068a3000700320009017800f0
:10404000010220000a00780013fe07000000e000d3
:1040500006003a00060037008a00780000022000bf
:10406000180a0700e10f4000010032008904e8004f
:104070008d06e900eeff3a00ddb79f003fb69700de
:10408000cfb69700610164000818a3000f0032004a
:104090003a0090000068a30006003200b102200040
:1040a0000200e000010032008180e8000901780090
:1040b0000d003700b00220000200e00001003200d5
:1040c0000080e8008a0078000e0037000200e0005f
:1040d000100032003a0090000068a3000700320090
:1040e00009017800010220000a007800eafd0700bb
:1040f0000000e00006003a00060037008a00780061
:1041000000022000ef090700e10f4000010032002b
:104110008904e8000b03e9006330b900000178006e
:10412000b2b79f004233dd00a0d42100000343005a
:104130008e01780093b79f00080778000604780086
:104140005c0037008b05e900000420006fb2970087
:10415000800f52003800320003003c000400e000f1
:10416000080032003e00370000082000efb0970042
:10417000808f500020003200000c2000808f500003
:1041800037003a000e48a300100032001802be00ab
:104190000401be000c00be00f4b79f0085bf9f0065
:1041a000fdfb0700e0df9f000000fb00cf80de008a
:1041b0007fb297008fba97000401be00bd0b0700c5
:1041c0000006560081865e0007003700180178005f
:1041d000110009000286d800a20020001100090089
:1041e0000280d800e1df9f006fd997000243b00042
:1041f000e2df9f001a00370010d321000e58a30001
:104200000100320000d22100a1d42100810054001d
:104210000c01be008100e900030033008301d100de
:104220000281d300fbff3700ef006100e0c078009f
:10423000e1df9f000a0037000c00be00bfb197000d
:104240008301e900030033008100d1000080d30026
:10425000fbff3700674060000043b000e0df9f00d5
:10426000ba0090006fda97000400fb000168a30019
:104270000700320009017800800078000a00780009
:1042800085fd07000000e00005003a00050037004a
:104290008a0078008b090700e10f4000010032001e
:1042a0008904e8003fb0970063005000b0b79f005a
:1042b000640454000b00e000a2ff3a000e047800f2
:1042c0001fb797000838a30016003200dfb0970030
:1042d0000100e00013003400010478003a0090006f
:1042e0000068a300070032000901780001022000e5
:1042f0000a00780068fd07000000e00006003a00b0
:10430000060037008a007800000220006d090700cf
:10431000e10f4000010032008904e8000804e900d0
:10432000eeff3a002fb1970012407800e0df9f00c7
:104330000004e0006bfd3a00090078004f077800a8
:104340004f06be004f05be004f04be006f01b10016
:1043500000000600889fbe008a9fbe000084fb000c
:10436000d1c6b300814f5000200036004b0620001c
:10437000110009000b84d80081057800720040000c
:104380004200dd00ca982000000045000200200025
:1043900003f023001000be00e70a07000002be0081
:1043a000a9002000110009008985d8008005780047
:1043b000e9854500c25ddd008b0545001b01be009f
:1043c0000400be00dc0a07000002be001100090064
:1043d0000984d800010478004244dd000805450046
:1043e0001a01be000400be0018003700ea4f50005a
:1043f00010003600aa002000110009000a84d8002d
:1044000001057800690440004244dd00c99820009d
:10441000088444000200200003f023001800be00be
:10442000c50a07004255dd008a8444001901be0018
:10443000060037004244dd00c09820000804400018
:104440000200200003f023001800be00ba0a070093
:104450004f05be004f04be0000000600889fbe004e
:104460008a1f7800d1c6b3000004e00025003d009b
:104470000040ea000004fb00814f50000e003400b1
:1044800042062000110009000204d800a900200003
:10449000110009008900d800e9004000c208dd00d1
:1044a000ca982000810045001101be00c04e800066
:1044b000d14e800023003700ea4f50000e00340038
:1044c000a2002000110009000204d80001017800b8
:1044d000690040004200dd00c198200000804000db
:1044e0004211dd00828040001101be001000be00bc
:1044f000910a07002b0037004244dd00c0982000dd
:10450000260037000004fb00814f500017003400e4
:1045100042062000110009000204d800a900200072
:10452000110009008900d800e9004000c208dd0040
:104530008a952000810045001101be00204d8000b9
:10454000314d80007c0a07000002be001100090006
:104550000904d800010478004244dd000805450044
:104560001a01be000400be00e1ff3700ea4f500010
:1045700008003400a2002000110009000204d80045
:1045800001017800690040004200dd0081952000b3
:10459000d2ff37004244dd0080952000080440002f
:1045a0001800be004f0578004f04be000000060052
:1045b000d0019000028151004240a9000300340064
:1045c00010017800014978000208e8000100780035
:1045d00000000600af02b000889fbe008a9fbe00a8
:1045e0008c9fbe008e1f780000077800a1af9f004f
:1045f000f2af9f006055b8000000eb00c0b79f000d
:10460000a4083700afa897008100e800a1af9f0081
:1046100051c2b300814f500003003a00afa9970088
:104620000000eb0013003700be0090000000fb000c
:104630000168a300070032004fb1970080007800a6
:104640000e007800daff07000000e00005003a00e5
:10465000900837008e0078009a080700e10f4000ac
:104660008c0832004fb197000201e800c2b79f00ea
:10467000880837008300780033417800b4c2b30063
:10468000844f51001300320007003c006b4252007f
:10469000844f51000d00320063424200844f5100ac
:1046a00012003a000d003700d4c2b300844f51000d
:1046b0000400320063424200844f51000b003a0074
:1046c000080037000030a000eaff37000000a0001b
:1046d000e8ff37000010a000e6ff370000b0a000a0
:1046e000e4ff37000020a000e2ff37000018a3001d
:1046f000010032000000a1000038a30001003200d8
:104700000020a1008201fb000303b100e98f5100ea
:104710000e003e00010178008001eb0093b79f007e
:104720006a1ab900b201fb000303b10084814100a1
:10473000820078001202fb000403b100e90f52006e
:10474000f7ff360093b79f000a0037000002eb0026
:1047500094b79f00a3c2b300834f510005003a00f5
:10476000ffaa970045017800f5af9f0092b79f0020
:104770008100e800e2c2b300914f110019003a0035
:1047800000e0a000a0b79f00a0c2b300d14f10006e
:1047900004003200010078008001eb0083b79f0025
:1047a000090037007faa9700c4027800f4af9f0089
:1047b00085b79f008100e800afb197000e00370079
:1047c0006a1ab90084014100800078003001fb00c2
:1047d0000203b100e90f5100f9ff360083b79f00d3
:1047e000f5ff370000c0a000a0b79f000000eb005d
:1047f00080b79f00f0ff370031407800a1af9f00e5
:1048000072c6b300824f50003500320018003c00e1
:10481000a3b79f0031c6b300814f5000d0003200d3
:104820000e003c00fcc05000814f5000420032009e
:1048300006003c000004e0001b08320081c0e900d3
:10484000814f5000e0003a003300370081c5b300cb
:10485000814f5000dc003a004400370051c6b300dd
:10486000814f50002100320026003c00210037001b
:1048700002c7b300824f50003b0032000b003c00e7
:1048800064415100824f50001c003200a3b79f00ca
:10489000f1c6b300814f50002e003200e6c0500038
:1048a000814f5000c8003a0012003700a3b79f00a4
:1048b00051c7b300814f5000c8003200e3c0400030
:1048c000814f500004003200e5c05000814f50007d
:1048d000bd003a002d003700a0cf9f002700370011
:1048e000a3b79f00a0cf9f0017003700a0cf9f0065
:1048f0000d003700a0cf9f00bc0037000340a00090
:10490000bdff3700a0cf9f00afb1970003a0a0006c
:10491000a3b79f00b5003700a0cf9f002fb297002c
:104920000450a000a4b79f00afb297000580a0007c
:10493000a5b79f00ad003700a0cf9f002fb0970014
:104940000050a000a0b79f00afb097000190a0005a
:10495000a5003700a0cf9f002fb197000260a000f4
:10496000a2b79f00a1003700a3b79f00a0cf9f0070
:10497000afb197000350a000a3b79f002fb29700dc
:104980000470a000a4b79f0098003700a0cf9f003c
:10499000ffaa970045007800f5af9f000006780059
:1049a0000000e00001003a004cd921008c007800a2
:1049b0000000eb00010037000000e80061417800d2
:1049c0000204e000fcff3a00800678000fb0970078
:1049d0000000e000030032008d0f500001003100a4
:1049e000800678000004eb009fb097008d8f500088
:1049f000010036000d8450002fb19700e8046100db
:104a000035003a00acb79f00bdb79f000a06be0054
:104a1000cfb59700110037003e0090000068a3005a
:104a2000070032000b017800010220000e00780020
:104a3000dffe07000000e00006003a000600370035
:104a40008e007800000220009e070700e10f400062
:104a5000010032008b05e8000804e9000800e000ce
:104a6000edff3a00cbb79f000c05be002fb69700b4
:104a7000bfb697000084eb00aab79f00bbb79f00aa
:104a8000170037003e0090000068a30009003200c4
:104a90000c007800b000fb00000678000b017800e5
:104aa0000e007800c2fe07000000e00008003a0097
:104ab0000c0037008c0078003100fb000106780004
:104ac0008e0078007f070700e10f400005003200ec
:104ad0008b05e80003003700aab79f00bbb79f0013
:104ae000cfb597000d0078008006e9000000e000d7
:104af000e4ff3a00cbb79f002fb59700bfb59700f2
:104b00000900e00063073200cfb4970011003700be
:104b10003e0090000068a300070032000901780001
:104b2000010220000e007800a1fe07000000e00056
:104b300006003a00060037008e00780000022000d0
:104b400060070700e10f4000010032008904e8001f
:104b50000804e9000800e000edff3a004c073700c8
:104b6000ffa9970043007800f3af9f00cf80de00dd
:104b7000c809de00480add004801de0002017200bb
:104b8000a2cf9f00afb297000548a30008003200f3
:104b90000204e00006003200e14f41000400320050
:104ba000b2cf9f00c0cf9f002d0020000200370031
:104bb000b0cf9f001d002000a0fc2f000f00400080
:104bc0000006e80081ff3700a0cf9f00acfc2f005b
:104bd0000f0646001d0020007cff3700a0cf9f007d
:104be000afb09700010cb300a1b79f000170200087
:104bf0002fb1970081006100700061000100e000aa
:104c0000e104320002c8a300020032006300200069
:104c100083b79f000000e000080032007faa9700e1
:104c2000680252003400be002401be00f4af9f00b1
:104c3000f50807000004be0003003700ffaa970034
:104c40004504be00f5af9f006011b8000800be002b
:104c5000400807000000e00004003d0009f0a20049
:104c60002fb097003000b300a0b79f000000eb000a
:104c7000f0a79f006011b8000800be0056080700aa
:104c80000000e00024003200e2fc2f000f01410090
:104c90000800be00780807007fa097000000e90028
:104ca0006302b900a2002000110009000202d8002e
:104cb000f0a79f000000e00002003d000000e900b6
:104cc000f0a79f007fa697000c40ea00e3fd0700d5
:104cd0000801be00980807000005be000200200081
:104ce00003f823001b0807000000e00002003d005d
:104cf0000c06e90007003700020020000312240020
:104d00000a00be00150807000000e00002003500a0
:104d10000c06e800fca79f007fa697002fb1970024
:104d20000288a30007003a000298a300ae023200f6
:104d3000e40f4600030035008fb19700830f560043
:104d4000650235000fb297000400e0000500320054
:104d5000afb297000598a300020032000402e900f8
:104d600084b79f000fb09700e80f50000300360093
:104d700080c0b300a0cf9f00020037008fe09700f3
:104d8000a1cf9f006011b8000800be001208070004
:104d90000000e00033003200afce97000d40560017
:104da000aefd07000001be000800be00a707070017
:104db0000004be00eb070700050807000001be0065
:104dc0000800be00430707000200200003f0230094
:104dd000e20707000000e0000500350002002000a7
:104de00003f023000800be003b0707000004be00dc
:104df0000800be00db0707000d01fb008201e80090
:104e0000c219dd00c4d9210083014200b30f500054
:104e1000a38f580007003900d2cc2c00c3dc23003c
:104e20000800be00440807000004be000c06e800ad
:104e30000b0037004211dd0002014200b20f5000aa
:104e4000a28f580007003100020020000312240046
:104e50000800be00380807000004be000c06e90088
:104e6000fca79f0001a020002fb1970081006100e6
:104e700000202000808f500026003a008fb197005c
:104e8000ea8f510002003400a400200084b79f0084
:104e90000800be00b3070700070037008fb2970075
:104ea0008502e90085b79f00a200200003002000d2
:104eb0000c00be00b8f807000006be00e00f50006e
:104ec000e08f580006003200a200200003002000fe
:104ed000c1f80700e00f5000e08f5800efff3200ec
:104ee0002fc897008000fb000fb19700810f510081
:104ef00008003d000240500058fd07000001be00c0
:104f00000800be00510707000004be008fe19700b3
:104f1000a3cf9f001fb29700650052008fb2970089
:104f20000500500090b79f000500e00003003a0024
:104f30002fb0970000b8a300030032009fb0970085
:104f40008100e90091b79f002fb1970063006100d5
:104f5000030032009fb197008301e90093b79f00df
:104f60002fb297000428a300530032003e009000a7
:104f7000610162000418a300180032000068a30059
:104f80000a003200b10220000200e00001003200fd
:104f90008180e8004fb197000e00780084fd070083
:104fa0000000e00009003a003a003700b00220009b
:104fb0000200e000010032000080e8008e0078006e
:104fc00040060700e10f400032003200cfb29700e8
:104fd0008502e800050678002f0037000200e00097
:104fe0002c0032000068a300070032004fb1970088
:104ff000010220000e0078006dfd07000000e000b7
:1050000006003a00230037008e00780000022000de
:105010002c060700e10f40001e0032004fb0970041
:105020000000e800000678001b0037003e009000fa
:105030000068a3000b0032000c017800010320007f
:105040000e007800f4b79f0085bf9f0058fd070051
:105050007fb297008fba97000000e0000a003a0084
:105060000a0037008e00780000032000f4b79f008c
:1050700085bf9f00130607007fb297008fba970085
:10508000e10f4000010032000c06e8008904e9004d
:10509000030037004fb697000802be009fb4970088
:1050a0000900e000e1ff3c0099b79f00ccb79f00ea
:1050b0000404be004f003700afb097000138a300d2
:1050c0001c003a004fb69700d8af9f00e9af9f0091
:1050d0009fb49700110037003e0090000068a300c5
:1050e000070032000c017800010220000e00780059
:1050f0002ffd07000000e00006003a000600370020
:105100008e00780000022000ee050700e10f40004d
:10511000010032000c06e8008904e9000900e00003
:10512000edff3c0099b79f00ccb79f005fac9700a4
:10513000efac97003e009000afb197006181610035
:105140000318a300180032000068a3000a00320010
:10515000b10220000200e000010032008180e8007e
:105160004fb197000e00780011fd07000000e0002d
:1051700009003a001f003700b00220000200e000e2
:10518000010032000080e8008e007800cd050700a5
:10519000e10f4000170032004fb297000402e80010
:1051a000c4b79f00130037000200e0001100320076
:1051b0000068a300070032004fb1970001022000f1
:1051c0000e007800fafc07000000e00006003a003c
:1051d000080037008e00780000022000b9050700a3
:1051e000e10f400003003200cfb297008502e800d3
:1051f000c5b79f000800be00da0607000006be0023
:105200003e019000c0d92100afc997008300fb0088
:105210000268a3000d003200c208dd00010040005a
:105220001001be000c00be00dbf7070001032000e8
:10523000808040004fb197000e007800dcfc070032
:105240000000e0000d003a000f003700c208dd004a
:10525000010040001001be000c00be00cef70700a8
:1052600002032000000141008e0078000200780057
:1052700094050700e10f4000030032004fb2970091
:105280000402e800c4b79f00afca97000500fb0006
:105290004200dd00c1d92100008040001001be00a5
:1052a0000c00be00ccf707000006be000fb0970050
:1052b0000000e00003003a00afb0970001b8a3007f
:1052c000660032003e0090000068a3000700320034
:1052d0004fb19700e10220000e007800b4fc0700f7
:1052e0000000e00006003a00080037008e00780059
:1052f000e002200073050700e10f400003003200c8
:105300004fb197000201e800c2b79f002fcc970071
:10531000cfb4970033003700afb197000398a300d4
:1053200008003200e00f5600e08f5e0005003a00f2
:10533000c9b79f000042eb00a4cf9f000004eb0020
:10534000430037003e019000c0d921008100fb00de
:105350000268a3000d003200c208dd000100400019
:105360001001be000c00be008bf7070001032000f7
:1053700080804000090178000e0078008cfc070056
:105380000000e0000d003a000d003700c208dd000b
:10539000010040001001be000c00be007ef70700b7
:1053a00002032000000141008e0078000200780016
:1053b00044050700e10f4000010032008904e800c5
:1053c000afca97000500fb004200dd00c1d92100f3
:1053d000008040001001be000c00be007ef70700f8
:1053e0000006be002fc897008040e900a1cf9f00b3
:1053f0000004e000c8ff3a00c9b79f000804fb00a2
:105400000fb0970008045000110037003e009000d4
:105410000068a300070032000901780001032000a2
:105420000e00780062fc07000000e00006003a0071
:10543000060037008e0078000003200021050700d9
:10544000e10f4000010032008904e8000804e9008f
:105450000800e000edff3a00c9b79f003e00900051
:10546000afb097000158a300120032000068a300fb
:10547000070032004fb19700510420000e00780061
:105480004bfc07000000e00006003a001a0037005d
:105490008e007800500420000a050700e10f40004c
:1054a000150032004fb197000201e800c2b79f001b
:1054b000110037000068a300070032004fb19700c9
:1054c000510620000e00780039fc07000000e000c3
:1054d00006003a00080037008e00780050062000d1
:1054e000f8040700e10f400003003200cfb197003d
:1054f0008301e800c3b79f00ffa097003e00900023
:105500000100e00014003d008100ea00f1a79f00c7
:105510000068a300070032004fb19700d1022000bd
:105520000e00780022fc07000000e00006003a00b0
:105530001a0037008e007800d0022000e104070036
:10554000e10f4000150032004fb297000402e8005e
:10555000c4b79f00110037000068a30007003200a5
:105560004fb19700b10220000e00780010fc070038
:105570000000e00006003a00080037008e007800c6
:10558000b0022000cf040700e10f4000030032000a
:10559000cfb297008502e800c5b79f00be0090001b
:1055a0007fa097000168a3000b003200a20020003a
:1055b000110009000200d800010320008080400093
:1055c0004fb197000e007800f9fb07000000e000e3
:1055d00009003a000b003700a2002000110009006a
:1055e0000200d8000003b0008e007800b504070068
:1055f000e10f4000030032004fb097000000e800c8
:10560000c0b79f00be0090007fa097000168a30074
:105610000a003200a2002000110009000200d80098
:105620000103b0004fb197000e007800e0fb0700c7
:105630000000e0000a003a000c003700a200200041
:10564000110009000200d800000320000100400002
:105650008e0078009b040700e10f40000300320039
:10566000cfb097008100e800c1b79f002fb197002d
:105670000238a300870432009fb197000300e000c6
:105680008404340003047800cfb497003e009000f7
:105690000068a30007003200090178000102200021
:1056a0000e007800c2fb07000000e00006003a0090
:1056b000060037008e0078000002200081040700f9
:1056c000e10f4000010032008904e8000804e9000d
:1056d000eeff3a006e0437000c00e00004003d00cd
:1056e0000c86ea000fb297000c02420084b79f00bc
:1056f0000800be009b050700d0af9f00e1af9f00f0
:1057000081d921000040eb0007003700e480400011
:105710005faa9700efaa9700b10f5200a18f5a001d
:10572000030039000040e800ea4f5000f7ff3a005c
:105730000000fb008fb297008082520085b79f0067
:10574000ec8f520006003c000540780001fb07008a
:105750000001be000800be00df0407000004be0018
:105760000fe097003dfb07000006be005fa8970012
:10577000efa89700960507000001be000800be00d4
:10578000d40407000001be000c00be00ea050700bb
:10579000740507000006be0008003700a2002000c4
:1057a000030020000c00be007bf607000006be00d0
:1057b0000fb097000000e90080b79f008fb09700fe
:1057c0000100e00011003200a200200003002000d0
:1057d0000c00be0080f60700e00f5000e08f58007c
:1057e000eeff3200090037000fb19700ec0f5100b7
:1057f00006003c0002407800d6fa07000001be0017
:105800000800be00b40407000004be007fa6970095
:10581000e90f56000c003c006011b8000800be0003
:105820006d0507000000e0001b0032000800be000c
:105830004c050700e00f5000e08f580016003a00ba
:10584000e10f560014003400f205270093082400ed
:105850000a00be003f0507000000e00002003d0016
:10586000690656000100370068065600fca79f0035
:105870006fc89700f9fa07000005be000001be00de
:105880000800be00f1040700360507000006be0050
:105890006044b8000a0037000800be003105070068
:1058a0000006be004a0507000001be000800be0059
:1058b000880407000004be000000eb00f0a79f0072
:1058c000c1d9210010c0b30005003700e4804000ba
:1058d000b10f5600a18f5e00030039000040e800c0
:1058e000ea4f5000f9ff3a00a0cf9f00ffa09700b9
:1058f0009fb19700818051000fb2970084805000c3
:105900000000fb000080500090b79f000080200046
:10591000afb2970000806200d0af9f0002003a0053
:105920000400e000030032001fb097000000e9000f
:1059300090b79f00afb09700638060000300320013
:105940001fb197000201e90092b79f00afb1970025
:105950000328a3005e003200618161000318a300e8
:10596000190032003e0090000068a3000a003200d7
:10597000b10220000200e000010032008180e80056
:105980004fb197000e00780009fb07000000e0000f
:1059900009003a0043003700b00220000200e00096
:1059a000010032000080e8008e007800c503070087
:1059b000e10f40003b0032004fb297000402e800c4
:1059c000c4b79f00370037000200e0003500320006
:1059d0003e0090000068a300070032004fb197001e
:1059e000010220000e007800f1fa07000000e0003c
:1059f00006003a002b0037008e00780000022000dd
:105a0000b0030700e10f400026003200cfb297003c
:105a10008502e800c5b79f00220037003e009000d5
:105a20000068a3000f0032000d0178000103200080
:105a30000e007800f4b79f0085bf9f00d6b79f0087
:105a4000e7b79f00dafa07007fb297008fba970096
:105a50005fb39700efb397000000e0000e003a003c
:105a60000e0037008e00780000032000f4b79f007e
:105a700085bf9f00d6b79f00e7b79f00910307003f
:105a80007fb297008fba97005fb39700efb397008c
:105a9000e10f4000010032008d06e8008904e900b2
:105aa000040037000802be009fb497000c03be003c
:105ab000cfb697000900e000d8ff3c0099b79f00df
:105ac000cdb79f000404be000606be007c00370070
:105ad0002fb097000038a30020003a00b8af9f0015
:105ae000c9af9f009fb497008caf9f009daf9f00f0
:105af000cfb69700110037003e0090000068a30069
:105b0000070032000d017800010220000e0078002d
:105b1000a7fa07000000e00006003a000600370080
:105b20008e0078000002200066030700e10f4000ad
:105b3000010032008d06e8008904e9000900e00058
:105b4000edff3c0099b79f00cdb79f003fac970099
:105b5000cfac97000fae97009fae9700afb2970003
:105b6000618162000518a300190032003e00900018
:105b70000068a3000a003200b10220000200e00029
:105b8000010032008180e8004fb197000e007800dc
:105b900087fa07000000e00009003a0048003700db
:105ba000b00220000200e000010032000080e800a6
:105bb0008e00780043030700e10f400040003200f0
:105bc0004fb097000000e800c0b79f003c003700ce
:105bd0000200e0003a0032003e0090000068a3009e
:105be000070032004fb19700010220000e0078003c
:105bf0006ffa07000000e00006003a0030003700ae
:105c00008e007800000220002e030700e10f400004
:105c10002b003200cfb097008100e800c1b79f0091
:105c2000270037003e019000c1d921000000fb0091
:105c30000268a300100032004200dd000080400036
:105c40001001be000c00be0053f50700a2002000aa
:105c50000300200060f50700010320008080400061
:105c60004fb197000e00780051fa07000000e000e5
:105c700010003a00120037004200dd0000804000b2
:105c80001001be000c00be0043f50700a20020007a
:105c90000300200050f5070002032000000141002e
:105ca0008e0078000200780006030700e10f400034
:105cb000030032004fb197000201e800c2b79f0015
:105cc000afc897000140e900a0cf9f000104e000a9
:105cd000d4ff3a000806be00cfb497001300370087
:105ce0003e0090000068a300070032000901780020
:105cf000010320000e0078002dfa07000000e000ec
:105d000006003a00060037008e00780000032000ed
:105d1000ec020700e10f4000010032008904e800b6
:105d20007fa097000000e900f0a79f007fa09700e8
:105d30000000e000eaff3c00c9b79f000c04be0071
:105d40008fb19700e88f51000300340080c0b3008a
:105d5000a0cf9f00020037000fe29700a4cf9f0062
:105d60002fc897008000fb008fb2970081805200ff
:105d700081b79f000004e00003003a005fa897008d
:105d80000000e000120032003e0090000068a30016
:105d9000070032004fb19700e10220000e007800aa
:105da00003fa07000000e00006003a000800370090
:105db0008e007800e0022000c2020700e10f4000e0
:105dc00003003200cfb097008100e800c1b79f0008
:105dd0002fc89700a1f907000001be000800be000f
:105de00055040700df0307000006be004fb497000c
:105df0002e0037003e019000c0d921008100fb0039
:105e00000268a30010003200c208dd00010040005b
:105e10001001be000c00be00dff40700a20020004d
:105e200003002000ecf40700010320008080400004
:105e3000080178000e007800ddf907000000e0009e
:105e400010003a0010003700c208dd0001004000d9
:105e50001001be000c00be00cff40700a20020001d
:105e600003002000dcf407000203200000014100d1
:105e70008e0078000200780092020700e10f4000d7
:105e8000010032000804e8002fc997000200fb005f
:105e90004200dd00c1d92100008040001001be0099
:105ea0000c00be00ccf407000006be002fc897000f
:105eb0008040e900a1cf9f000004e000cdff3a0040
:105ec000c8b79f000fb49700cfb4970011003700f8
:105ed0003e0090000068a30007003200090178002e
:105ee000010320000e007800b1f907000000e00077
:105ef00006003a00060037008e00780000032000fc
:105f000070020700e10f4000010032008904e80040
:105f10000804e9000800e000edff3a00c9b79f005f
:105f2000afb197000338a3005a0232001fb29700a6
:105f30000400e00057023400040478003e009000a2
:105f40000068a30007003200090178000102200068
:105f50000e00780096f907000000e00006003a0005
:105f6000060037008e00780000022000550207006e
:105f7000e10f4000010032008904e8000804e90054
:105f8000eeff3a0042023700afb09700010cb200ba
:105f900013003a000000e00004003200ffaa97005e
:105fa0004506be00f5af9f00040037007fa89700ac
:105fb00040067800f0af9f00cfe6de00e00f56000d
:105fc000e08f5e0010003d00afb097003100b300dd
:105fd000a1b79f0060061600e0861e000a00370089
:105fe0000000e000040032007fa997004206be00d6
:105ff000f2af9f0004003700ffa997004306780026
:10600000f3af9f008006eb000fb297000400e000a2
:1060100006003a000c80760000f0a7000000ea00bd
:106020000000e9004f00de0080b79f00afb297008c
:10603000050cb200b5af9f0000042000808f520015
:106040002300320003003c000500e000080032009d
:106050002d00370000082000bfa89700808f500057
:106060000d003200000c2000808f500026003a0006
:10607000c1d9210010c0b300e4804000b10f560028
:10608000a18f5e001f0039000040e800ea4f500079
:10609000f9ff3a001b00370010c0b30002012000d6
:1060a00003002000820f5600838f5e001500390028
:1060b000441add00cc11de00830172004411dd00c2
:1060c0000040e800e84f5000f6ff3a000d003700ae
:1060d00010c0b3008200200003002000820f560091
:1060e000838f5e0007003900c31add00cd11de008a
:1060f000838172004311dd000040e800eb4f500047
:10610000f6ff3a00a0cf9f00afc897000100fb0048
:106110000fb19700820f500002003d00a2cf9f00f8
:10612000040037008fb19700808f510001003d00bf
:1061300080b79f001fb297000400e0000500320006
:10614000afb2970063806200020032000402e900ef
:1061500094b79f002fb0970000e8a3000900320019
:106160009fb097000fb19700828f5000030034005a
:106170008280500091b79f00020037008001eb0041
:1061800093b79f00418c20002fb2970081006200de
:1061900000842000808f500006003a009fb29700d4
:1061a0000500e000110032008502e90095b79f006c
:1061b0000e003700018c20002fb097008100600096
:1061c00000882000808f500008003a009fb09700a0
:1061d000e28f5000030034008180e90091b79f00f6
:1061e000020037000001eb0092b79f00afc9970093
:1061f0000300fb000002eb00d4af9f009fb29700aa
:10620000808f52000200340000805200d0af9f0007
:106210002fb097000028a3007d00320061016000cc
:106220000018a300190032003e0090000068a3008f
:106230000a003200b10220000200e000010032003a
:106240008180e8004fb197000e007800d8f8070071
:106250000000e00009003a0053003700b0022000bf
:106260000200e000010032000080e8008e007800ab
:1062700094010700e10f40004b003200cfb09700bf
:106280008100e800c1b79f00470037000200e0002e
:10629000130032003e0090000068a30007003200a7
:1062a0004fb19700010220000e007800c0f80700ef
:1062b0000000e00006003a003b0037008e00780046
:1062c000000220007f010700e10f4000360032008d
:1062d0004fb197000201e800c2b79f0032003700bb
:1062e000018c2000afb19700818061000088200000
:1062f000808f50002c003a003e0090000068a30000
:10630000070032004fb19700010320000e00780013
:10631000a7f807000000e00006003a000800370078
:106320008e0078000003200066010700e10f4000a6
:10633000030032004fb297000402e800c4b79f0088
:106340003e0090002fb197000202b2000068a30047
:106350000a003200810720000200e0000100320044
:10636000810520004fb197000e00780090f80700db
:106370000000e00009003a000b0037008007200011
:106380000200e00001003200800520008e0078004d
:106390004c010700e10f400003003200cfb297002c
:1063a0008502e800c5b79f005fa897000000e000e5
:1063b000ac00320000047800cfb497003e0090009b
:1063c0000068a300070032000901780001032000e3
:1063d0000e00780076f807000000e00006003a00a2
:1063e000060037008e00780000032000350107000a
:1063f000e10f4000010032008904e8000804e900d0
:10640000eeff3a00d8af9f00c9b79f009500370054
:10641000dfa897000100e000190032002fb19700bb
:106420000238a30016003a0001047800cfb49700a8
:106430003e0090000068a3000700320009017800c8
:10644000010220000e00780059f807000000e0006b
:1064500006003a00060037008e0078000002200097
:1064600018010700e10f4000010032008904e80034
:106470000804e900eeff3a00d8af9f00c9b79f00bb
:10648000afb19700618161000318a30019003200c9
:106490003e0090000068a3000a003200b102200014
:1064a0000200e000010032008180e8004fb1970057
:1064b0000e0078003ef807000000e00009003a00f6
:1064c00020003700b00220000200e000010032008e
:1064d0000080e8008e007800fa000700e10f40001d
:1064e000180032004fb297000402e800c4b79f00c2
:1064f000140037000200e000120032003e0090005d
:106500000068a300070032004fb19700010220008d
:106510000e00780026f807000000e00006003a00b0
:10652000080037008e00780000022000e500070018
:10653000e10f400003003200cfb297008502e8006f
:10654000c5b79f00008c2000afb0970000806000ae
:1065500001842000810f500013003a003e0090009b
:106560000068a300070032004fb19700010320002c
:106570000e0078000ef807000000e00006003a0068
:10658000380037008e00780000032000cd0007009f
:10659000e10f4000330032004fb197000201e800e4
:1065a000c2b79f002f00370001882000810f5000e4
:1065b0002c003a003e0090000068a3000700320063
:1065c0004fb19700010320000e007800f8f7070094
:1065d0000000e00006003a00080037008e00780056
:1065e00000032000b7000700e10f40000300320065
:1065f000cfb197008301e800c3b79f003e00900031
:106600002fb197000202b2000068a3000a00320016
:10661000810720000200e000010032008105200017
:106620004fb197000e007800e1f707000000e0008e
:1066300009003a000b003700800720000200e0004c
:1066400001003200800520008e0078009d000700c8
:10665000e10f4000030032004fb297000402e8004f
:10666000c4b79f008fb297000502e9006320b9000c
:106670000001780092b79f004222dd00c0d92100be
:10668000000242008aaf9f009baf9f000404780085
:10669000bfac97005f0037008fb097008100e90022
:1066a00081b79f0000042000808f54003800320022
:1066b00003003c000900e000070032003e00370004
:1066c00000082000808f540020003200000c2000c1
:1066d000808f540038003a002fb197000200e0008c
:1066e00003003500afb197000348a3000c0032004f
:1066f0001805be000a01be000c00be00a6f207008d
:10670000a0cf9f000000fb00cf80de000a01be008a
:10671000680207000006560081865e000700370009
:1067200018017800110009000286d800a20020009c
:10673000110009000280d800a1cf9f002fca970046
:106740000443b000a4cf9f001b00370030d82100c5
:10675000afb297000558a3000100320020d72100f6
:10676000c1d92100810054000c01be008100e90064
:10677000030033008301d1000281d300fbff370007
:106780006f01610060417900a2cf9f000a003700cd
:106790000c00be001fb197000201e90003003300a6
:1067a0008100d1000080d300fbff3700674060000c
:1067b0000043b000a0cf9f00be009000afc997007b
:1067c0000300fb000168a300070032004fb19700ef
:1067d000800078000e00780075f707000000e000e8
:1067e00005003a00070037008e00780035000700ea
:1067f000e10f4000030032004fb297000402e800ae
:10680000c4b79f009fb29700e382520095b79f00e4
:10681000640454000fb097000000e0009eff3a00af
:106820000fad97009fad9700afb097000138a30060
:10683000180032005fa997000200e0001500340044
:1068400002047800cfb497003e0090000068a300d7
:106850000700320009017800010220000e007800d4
:1068600053f707000000e00006003a00060037007a
:106870008e0078000002200012000700e10f4000a7
:10688000010032008904e8000804e900eeff3a0044
:10689000c9b79f00afa9970013407800a0cf9f0011
:1068a0000004e00057f73a004fb097004f07780018
:1068b0004f06be004f05be004f04be00af02b10040
:1068c00000000600889fbe0001047800b800900018
:1068d0008084eb000118a3003a00320018019000f8
:1068e0000198a30002003a000200e00035003a00df
:1068f0000190a0003104980080047800f90fb200e4
:106900000200e00002003a0028009000000c78002d
:10691000ea8f540005003a000178a30003003a0012
:1069200088007800d0002000e6ff070018009000e3
:10693000d8009000810f50000b0032000000e800ea
:10694000100498001800780009487800000ce8004e
:1069500011c0b300a0e3210001487800ea8f540081
:1069600018003a00050037008800780009407800d8
:1069700017000700800478001200370038009000ec
:106980000088a3000f00320018019000a8009000ba
:106990004800900093f1070098009000810f50008c
:1069a00004003200380090000003b3003004980067
:1069b0008084eb000000eb00100498002800900099
:1069c000000c7800090078004f04be0000000600ab
:1069d0000200fa00889fbe00a0ff9f00010478001b
:1069e000380090000068a30033003a00e200600025
:1069f00005003a000003b300300498001104980029
:106a00000080eb002e003700d80490000900e00061
:106a100006003a0012002000e6805700480090006f
:106a200070f107001904980023003700a8009000b7
:106a30000100e00008003a00d1e3210021049800a1
:106a4000010c7800210020005104980011049800e6
:106a50000030a0003004980018019000a8009000b9
:106a6000480090005ff10700280090008080eb0054
:106a700011049800aff8970001487800000ce80076
:106a80002ff89700ea4f50000b003a0038009000b2
:106a90000088a3000800320018019000a8009000b0
:106aa000480090004ff107000000eb001004980030
:106ab000a8009000010c7800aff897000100fb00df
:106ac0004f04be000080fa000000060000c0da009b
:106ad0000000060003f0a200889fbe008a9fbe004f
:106ae0008c1f7800fc000700030133006450e100b4
:106af0004f0032006420e1005200320003826c003b
:106b000007003b000905d0000306d000820f5400a7
:106b10000c065d0002003900020032008901780095
:106b2000030678008582550004003d000003fd0047
:106b30008103fd008502ea008b854200840f72000c
:106b400002003b0060001000e08018006011b800f7
:106b50000005eb007a28e1000a0039000600780001
:106b6000c75ddd00f707b200878075002d00370094
:106b7000828171000a017800610560008180d10086
:106b80000080d3008502e900f9ff3b0006044000c5
:106b90008784480002003b0060041400e0841c006d
:106ba0000988a300070032008a8171008281710088
:106bb000610164008904d1000884d3008b05e800da
:106bc000170037000978a30013003a000b00e0001b
:106bd000130034008b05e9000804440089844c004c
:106be0000a4474000978a3000d003a000b00e0008d
:106bf000070034008b05e9000804440089844c0038
:106c000001003a000b0020000978a300f7ff3200d2
:106c10000001eb0002003700828171000a01780058
:106c20006f0007000cf0a70001f0a000bb003700c8
:106c30006420e10002003a00838f6c00bb00330047
:106c40000801be000200be00b4003700889fbe00ed
:106c50008a9fbe008c1f78009f000700a6003300ab
:106c600003866c006450e1002e0032006420e100d5
:106c7000330032006150e1002f0032006120e1005a
:106c80003100320085855500eb07b0000900200077
:106c900008042000050037000804440089844c00e3
:106ca0000a0031000603430087834b0000015300b4
:106cb00081815b00f8ff33000203be000800a000e2
:106cc0000804440089844c00f6ff3900c639dd0011
:106cd0008301730001003200130020008904d100f9
:106ce0000884d3000998a300050032000800a7001b
:106cf0000300a0008904d1000884d3008b05e800bc
:106d00008904d1000884d3000001eb000281d20085
:106d10003300070001f0a1000cf0a70001f0a00073
:106d20007e0037006420e100800032000801be00d0
:106d30000200be00f7ff37006120e1007b00320057
:106d40006000b800f3ff37000000200001f82700c2
:106d5000f0ff37001400200029013700f4ff2f0056
:106d6000270137000001be00460007000470a7009d
:106d700003f0a10003f8a30013003a006509b10075
:106d800010003200090035006928e10002003500da
:106d9000010028000000050000004000818048003c
:106da0008502e900fcff3a0000000600f88f42006f
:106db000050035008100d1000080d3008502e80085
:106dc000fcff3a00000006008000eb000000050018
:106dd0006011b800250137000400200008013700c9
:106de00081002000618055000b003d000b00200059
:106df00061fe2f000100e1001d003400828171005e
:106e0000610164008904d1000884d3000000e80017
:106e1000faff3a0071002000610064000300700076
:106e2000020060000900320061044400e0844c006c
:106e30000988a500050032008b05e8006808e1001c
:106e400002003a008904d1000884d300f20f200028
:106e50000258e10005003d00c75ddd00f907b20002
:106e60008980750008007800000006000bf82700f4
:106e70008b007800000005009400070005097800e9
:106e800000000600c70ade00f107b200f50fb200ed
:106e900008003200e1cf4200020032000170a00081
:106ea00024000500810f7000010032000408050075
:106eb00044000500810f700002003a001400050034
:106ec0008502e9000000400081c04800fcff3b0053
:106ed0000170a000240005000004be00e9ff0700c7
:106ee0000003be000405be000200be00e5ff07006f
:106ef000844f7500000006000200be006450e100ef
:106f0000050036006420e100020036000968a30095
:106f100001003a000800be000160a0004f067800a2
:106f20004f05be004f04be0000000600f0ff2f001a
:106f3000f1ff2700f9ff3700889fbe008a9fbe003f
:106f40008c1f7800e4ff0700ebff330003866c0022
:106f50006450e100240032006420e1002700320088
:106f60006150e100220032006120e1002100320086
:106f70008b854200eb07b1000134b800003ab8003d
:106f80000804420089844a00013ab8000030b80081
:106f90008880400009014a000400330000004000de
:106fa00081804800020149008b05e900c909dd0024
:106fb000830170000100320013002000c814de00bd
:106fc0004814dd004709de001200b200c808de00e8
:106fd0000884700082ff070001f0a1000cf0a700f8
:106fe00001f0a000cdff37006120e100cfff3200ab
:106ff0000801be000200be00f7ff37006150e1004b
:10700000fcff3a00c9ff37001400fa00889fbe0059
:107010008a9fbe008c9fbe000005be000206be0017
:10702000680047000c90be000a90be0034000700c4
:107030006400e1001a00320016003e006100e10029
:107040001a0032006e049000fe0490000e0b9000b7
:107050009e0b90006011b8009e0590000b38b100a7
:10706000d501200082817100610164008703d10095
:107070000683d3008984d3000884d3008502e90005
:10708000f8ff3a0056ff07000df0a70001f0a0003e
:1070900056003700f1ff2700f0ff2f0053003700a4
:1070a00001f8270000002000f7ff37006000b8005b
:1070b000f5ff3700020ab900001bb9000200b80052
:1070c0008100420081004300000006000003be0072
:1070d0006cff07006220e100020032000600be00e3
:1070e00005000500e507b100f107b20004f0230038
:1070f0008480700007f0a70001f0a00024000500c4
:10710000800078005002be005003be004439de000b
:10711000f700b200f37f2000030161000900320094
:107120000218e10016003a00850172008301730025
:10713000838173000008200015003a004000200001
:10714000130037008501720083017300838173008f
:1071500005003a0004a8be0006a8be0010002000ea
:107160000b0037000201e9000402420085824a0058
:1071700006034b0087834b000748a300f9ff32004a
:107180000740a00004a8be0006a8be002000200002
:1071900080009800920098000000060068044700f4
:1071a0000294be000094be00fc0447008694be001a
:1071b0008494be0009007800d1ff07000800780021
:1071c000cfff070099007800814f70000b003b0053
