:020000040000fa
:04000800f2170000eb
:020000040000fa
:04000c00f2170000e7
:020000040000fa
:04001000c810000014
:020000040000fa
:04001400d210000006
:020000040000fa
:04001800f2170000db
:020000040000fa
:04001c00f2170000d7
:020000040000fa
:04002000f2170000d3
:020000040000fa
:04002400f2170000cf
:020000040000fa
:04002800f2170000cb
:020000040000fa
:04002c00f2170000c7
:020000040000fa
:04003000f2170000c3
:020000040000fa
:04003400da170000d7
:020000040000fa
:0400380004110000af
:020000040000fa
:04003c00f2170000b7
:020000040000fa
:04004000f2170000b3
:020000040000fa
:04004400f0100000b8
:020000040000fa
:04004800f2170000ab
:020000040000fa
:04004c00f2170000a7
:020000040000fa
:04005000f2170000a3
:020000040000fa
:040054006a1300002b
:020000040000fa
:04005800f21700009b
:020000040000fa
:04005c00dc100000b4
:020000040000fa
:04006000f217000093
:020000040000fa
:04006400f21700008f
:020000040000fa
:04006800f21700008b
:020000040000fa
:04006c00f217000087
:020000040000fa
:04007000f217000083
:020000040000fa
:04007400f21700007f
:020000040000fa
:04007800f21700007b
:020000040000fa
:04007c00f217000077
:020000040000fa
:04008000f217000073
:020000040000fa
:04008400f21700006f
:020000040000fa
:04008800f21700006b
:020000040000fa
:04008c00f217000067
:020000040000fa
:04009000f217000063
:020000040000fa
:04009400f21700005f
:020000040000fa
:04009800f21700005b
:020000040000fa
:04009c00f217000057
:020000040000fa
:0400a000a2150000a5
:020000040000fa
:0400a400f21700004f
:020000040000fa
:0400a800f21700004b
:020000040000fa
:0400ac00f217000047
:020000040000fa
:0400b000f217000043
:020000040000fa
:0400b400f21700003f
:020000040000fa
:0400b800f21700003b
:020000040000fa
:0400bc00f217000037
:020000040000fa
:0400c000f217000033
:020000040000fa
:0400c400f21700002f
:020000040000fa
:0400c800f21700002b
:020000040000fa
:0400cc00f217000027
:020000040000fa
:0400d000f217000023
:020000040000fa
:0400d400f21700001f
:020000040000fa
:0400d800f21700001b
:020000040000fa
:0400dc00f217000017
:020000040000fa
:0400e000f217000013
:020000040000fa
:0400e400f21700000f
:020000040000fa
:0400e800f21700000b
:020000040000fa
:0400ec00f217000007
:020000040000fa
:0400f000f217000003
:020000040000fa
:0400f400f2170000ff
:020000040000fa
:0400f800f2170000fb
:020000040000fa
:0400fc00f2170000f7
:020000040000fa
:04010000f2170000f2
:020000040000fa
:04010400f2170000ee
:020000040000fa
:04010800f2170000ea
:020000040000fa
:04010c00f2170000e6
:020000040000fa
:04011000f2170000e2
:020000040000fa
:04011400f2170000de
:020000040000fa
:04011800f2170000da
:020000040000fa
:04011c00f2170000d6
:020000040000fa
:04012000f2170000d2
:020000040000fa
:04012400f2170000ce
:020000040000fa
:04012800f2170000ca
:020000040000fa
:04012c00f2170000c6
:020000040000fa
:04013000f2170000c2
:020000040000fa
:04013400f2170000be
:020000040000fa
:04013800f2170000ba
:020000040000fa
:04013c00f2170000b6
:020000040000fa
:04014000f2170000b2
:020000040000fa
:04014400f2170000ae
:020000040000fa
:04014800f2170000aa
:020000040000fa
:04014c00f2170000a6
:020000040000fa
:04015000f2170000a2
:020000040000fa
:04015400f21700009e
:020000040000fa
:04015800f21700009a
:020000040000fa
:04015c00f217000096
:020000040000fa
:04016000f217000092
:020000040000fa
:04016400f21700008e
:020000040000fa
:04020800f2170000e9
:020000040000fa
:04020c00f2170000e5
:020000040000fa
:04021000c810000012
:020000040000fa
:04021400d210000004
:020000040000fa
:04021800f2170000d9
:020000040000fa
:04021c00f2170000d5
:020000040000fa
:04022000f2170000d1
:020000040000fa
:04022400f2170000cd
:020000040000fa
:04022800f2170000c9
:020000040000fa
:04022c00f2170000c5
:020000040000fa
:04023000f2170000c1
:020000040000fa
:04023400da170000d5
:020000040000fa
:0402380004110000ad
:020000040000fa
:04023c00f2170000b5
:020000040000fa
:04024000f2170000b1
:020000040000fa
:04024400f0100000b6
:020000040000fa
:04024800f2170000a9
:020000040000fa
:04024c00f2170000a5
:020000040000fa
:04025000f2170000a1
:020000040000fa
:040254006a13000029
:020000040000fa
:04025800f217000099
:020000040000fa
:04025c00dc100000b2
:020000040000fa
:04026000f217000091
:020000040000fa
:04026400f21700008d
:020000040000fa
:04026800f217000089
:020000040000fa
:04026c00f217000085
:020000040000fa
:04027000f217000081
:020000040000fa
:04027400f21700007d
:020000040000fa
:04027800f217000079
:020000040000fa
:04027c00f217000075
:020000040000fa
:04028000f217000071
:020000040000fa
:04028400f21700006d
:020000040000fa
:04028800f217000069
:020000040000fa
:04028c00f217000065
:020000040000fa
:04029000f217000061
:020000040000fa
:04029400f21700005d
:020000040000fa
:04029800f217000059
:020000040000fa
:04029c00f217000055
:020000040000fa
:0402a000a2150000a3
:020000040000fa
:0402a400f21700004d
:020000040000fa
:0402a800f217000049
:020000040000fa
:0402ac00f217000045
:020000040000fa
:0402b000f217000041
:020000040000fa
:0402b400f21700003d
:020000040000fa
:0402b800f217000039
:020000040000fa
:0402bc00f217000035
:020000040000fa
:0402c000f217000031
:020000040000fa
:0402c400f21700002d
:020000040000fa
:0402c800f217000029
:020000040000fa
:0402cc00f217000025
:020000040000fa
:0402d000f217000021
:020000040000fa
:0402d400f21700001d
:020000040000fa
:0402d800f217000019
:020000040000fa
:0402dc00f217000015
:020000040000fa
:0402e000f217000011
:020000040000fa
:0402e400f21700000d
:020000040000fa
:0402e800f217000009
:020000040000fa
:0402ec00f217000005
:020000040000fa
:0402f000f217000001
:020000040000fa
:0402f400f2170000fd
:020000040000fa
:0402f800f2170000f9
:020000040000fa
:0402fc00f2170000f5
:020000040000fa
:04030000f2170000f0
:020000040000fa
:04030400f2170000ec
:020000040000fa
:04030800f2170000e8
:020000040000fa
:04030c00f2170000e4
:020000040000fa
:04031000f2170000e0
:020000040000fa
:04031400f2170000dc
:020000040000fa
:04031800f2170000d8
:020000040000fa
:04031c00f2170000d4
:020000040000fa
:04032000f2170000d0
:020000040000fa
:04032400f2170000cc
:020000040000fa
:04032800f2170000c8
:020000040000fa
:04032c00f2170000c4
:020000040000fa
:04033000f2170000c0
:020000040000fa
:04033400f2170000bc
:020000040000fa
:04033800f2170000b8
:020000040000fa
:04033c00f2170000b4
:020000040000fa
:04034000f2170000b0
:020000040000fa
:04034400f2170000ac
:020000040000fa
:04034800f2170000a8
:020000040000fa
:04034c00f2170000a4
:020000040000fa
:04035000f2170000a0
:020000040000fa
:04035400f21700009c
:020000040000fa
:04035800f217000098
:020000040000fa
:04035c00f217000094
:020000040000fa
:04036000f217000090
:020000040000fa
:04036400f21700008c
:020000040000fa
:102000002fd521000e5f24000e0188000000000083
:10201000000020000000e00002003200000120006b
:102020002002880014000700f00307000000e00011
:1020300003003a00802a2700010020000200370038
:102040000000200001002000810f7000010032001c
:1020500014000700000020000000e0000200320031
:1020600000000200000000005453020000000000c5
:102070000040da000000fe004440a900e086200095
:102080000000e0000300320000002000a0018800f2
:102090004440a800000006008a1f78008b1f7800cb
:1020a0000000060091018800800478000000eb0029
:1020b0001a003700e284440032a0b4009905ba0047
:1020c000e284440032a0b4009906ba00e2844400dd
:1020d00032a0b4000006eb00476fde00fd07b2003f
:1020e000636ce10003003a00ebff07000000eb0027
:1020f0000a003700606ce10004003a00005deb006c
:102100008b05e900fdff3e00040037006168e10037
:10211000010032000086eb000b00070019c7ba006f
:102120001905ba000e04e00003003a000a00e000be
:10213000e0ff3a0000000600fe07b2009e018800a2
:102140008a047800f5ff3700395dba008b05e90095
:102150000c003200295dba008b05e900080032004e
:102160000c00e00003003a00e284440032a0b40016
:10217000f5ff370019ddba008b05e900faff3a00d8
:102180008904e800e184440032a0b40000000600a5
:102190000000fa0000000000000000000080fa00cb
:1021a000004006000000fa000000000000000000ef
:1021b0000080fa00004006003400f800881f780014
:1021c00008002000a80188004f0478000000fa00f1
:1021d00085a0a9000080fa003400f9000040060044
:1021e0003400f800881f780008002000a80188004b
:1021f0004f0478000000fa0084e0a9000080fa0093
:102200003400f90000400600809fbe003400f80052
:1022100000002000a00188000400fa00d0418000e6
:102220000000e900d0418800d04180000000e000bb
:1022300002003a0013e1a9008500a900c041800016
:102240000000e00090003a00e0428000e10f500002
:1022500025003200e20f5000440032000000e00090
:1022600062003a000000eb00000f78001900370010
:102270001e007800800040000060240000804000c4
:10228000100078004200de00100798009e009000c9
:10229000f00f2000808f500002003600f00f200069
:1022a000100798001e009000fa0f500002003a003c
:1022b000b001200010079800b04180009e009000ff
:1022c00081407800014878000000e800b0418800b3
:1022d0001e0fe800f00720009e007800808f50005d
:1022e000e3ff3400620037000000eb00000f7800cd
:1022f000190037001e0078008000400000602400b4
:1023000000804000100078000000d1001007980005
:102310009e009000f00f2000808f500002003600d9
:10232000f00f2000100798001e009000fa0f5000d8
:1023300002003a00b001200010079800b041800070
:102340009e00900081407800014878000000e8007d
:10235000b04188001e0fe800f00720009e007800c2
:10236000808f5000e3ff3400410037000000eb0095
:10237000000f7800180037001e0078008000400031
:102380000060240000804000900078001107980051
:102390009e009000f00f2000808f50000200360059
:1023a000f00f2000100798001e009000fa0f500058
:1023b00002003a00b001200010079800b0418000f0
:1023c0009e00900081407800014878000000e800fd
:1023d000b04188001e0fe800f00720009e00780042
:1023e000808f5000e4ff3400210037000000eb0034
:1023f000000f7800190037001e00780080004000b0
:102400000060240000804000100078004200de00e0
:10241000100798009e009000f00f2000808f500061
:1024200002003600f00f2000100798001e009000f8
:10243000fa0f500002003a00b00120001007980087
:10244000b04180009e0090008140780001487800f3
:102450000000e800b04188001e0fe800f0072000ef
:102460009e007800808f5000e3ff340000000000e1
:10247000104180000008b0001041880010002000ca
:10248000c04188008e003700e0428000e10f50001c
:1024900025003200e20f5000440032000000e0004e
:1024a00062003a000000eb00000f780019003700ce
:1024b0001e00780080004000007024000080400072
:1024c000100078004200de00100798009e00900087
:1024d000f00f2000808f500002003600f00f200027
:1024e000100798001e009000fa0f500002003a00fa
:1024f000b001200010079800b04180009e009000bd
:1025000081407800014878000000e800b041880070
:102510001e0fe800f00720009e007800808f50001a
:10252000e3ff3400620037000000eb00000f78008a
:10253000190037001e007800800040000070240061
:1025400000804000100078000000d10010079800c3
:102550009e009000f00f2000808f50000200360097
:10256000f00f2000100798001e009000fa0f500096
:1025700002003a00b001200010079800b04180002e
:102580009e00900081407800014878000000e8003b
:10259000b04188001e0fe800f00720009e00780080
:1025a000808f5000e3ff3400410037000000eb0053
:1025b000000f7800180037001e00780080004000ef
:1025c00000702400008040009000780011079800ff
:1025d0009e009000f00f2000808f50000200360017
:1025e000f00f2000100798001e009000fa0f500016
:1025f00002003a00b001200010079800b0418000ae
:102600009e00900081407800014878000000e800ba
:10261000b04188001e0fe800f00720009e007800ff
:10262000808f5000e4ff3400210037000000eb00f1
:10263000000f7800190037001e007800800040006d
:102640000070240000804000100078004200de008e
:10265000100798009e009000f00f2000808f50001f
:1026600002003600f00f2000100798001e009000b6
:10267000fa0f500002003a00b00120001007980045
:10268000b04180009e0090008140780001487800b1
:102690000000e800b04188001e0fe800f0072000ad
:1026a0009e007800808f5000e3ff3400000000009f
:1026b000104180000008b000104188003828ef0069
:1026c0008480a9000080fa003400f9004f00be00a9
:1026d000004006003600f800809fbe00829fbe00ca
:1026e000849fbe00869fbe003400f80000002000da
:1026f000a00188000600fa000142800000002800c6
:10270000008060000000e0000d00320041e8a900f8
:1027100041118000010f78001e007800e30f500087
:1027200004003600700520009e007800808f500065
:10273000fb0036005005200040118800f8003700eb
:10274000101180006e0060000000e00013003200f5
:1027500010118000640060000000e0000c003200f6
:102760004028ef000000000051168000000021000a
:10277000008060000000e000fbff32001a940200bd
:102780000000000020a2a80041e8a800e4003700f3
:102790001a94020000000000e100370030118000b0
:1027a00020479800504080008000eb00a2002000ed
:1027b00003002000820f5000838f5800d6003e0097
:1027c000006001000a0037001800370028003700b9
:1027d00034003700460037005200370064003700ed
:1027e0006f0037007a00370097003700b8003700d5
:1027f000ae40900020c4b30080cf500008003a00e3
:102800002e4090000080fb00a040880040a8a80057
:10281000504080000000e80050408800c0003700b1
:102820001a94020000000000bd003700ae40900086
:1028300020c5b30080cf500009003a002e40900020
:102840008080fb00a040800000804000a040880005
:10285000504080000000e80050408800b000370081
:102860000a28ef001a94020000000000ac003700b4
:102870002e4090008080fb0020802000010878001e
:102880002e4090008080fb00a0408000008040002f
:10289000a0408800504080000000e80050408800c0
:1028a0009f0037002e4090000080fb00200798001a
:1028b00020802000900078002e0090004800dd006d
:1028c0008080400020802000010878002e40900089
:1028d0008080fb00a040800000804000a040880075
:1028e000504080000000e800504088008c00370015
:1028f0002e4090008080fb00208020001100980076
:102900002e4090008080fb00a040800000804000ae
:10291000a0408800504080000000e800504088003f
:102920007f0037002e4090000080fb0020079800b9
:1029300020802000900090002e0090004800dd00d4
:102940008080400020802000110098002e409000e0
:102950008080fb00a040800000804000a0408800f4
:10296000504080000000e800504088006c003700b4
:1029700020802000ae409000414098002e40900002
:102980008080fb00a040800000804000a0408800c4
:10299000504080000000e800504088006000370090
:1029a00020802000ae409000514098002e409000c2
:1029b0008080fb00a040800000804000a040880094
:1029c000504080000000e80050408800540037006c
:1029d00020802000100078000000e00008003a008d
:1029e0002e4090008080fb00208020003100980065
:1029f000504080000000e800504088000e00370082
:102a0000b00321006040880060408000ae4090002c
:102a1000014878000000e800604088002e409000e7
:102a20008080fb00a040800000804000a040880023
:102a30001000200080408800504080000000e80026
:102a40005040880036003700208020009000780039
:102a500080408000808f500008003e002e40900093
:102a60008080fb00208020003100980050408000d2
:102a70000000e800504088002900370080408000b6
:102a80000000e8008040880081408000400620006f
:102a9000808f5000030036001a94020000000000ee
:102aa0001f00370060408000ae4090000148780071
:102ab0000000e800604088002e4090008080fb000d
:102ac000a040800000804000a04088001400370033
:102ad0002e4090000080fb002007980020802000fe
:102ae000b00090002e0090004800dd008080400083
:102af000208020003100980020802000b00090004d
:102b0000a0408000808f500001003a004068a8007b
:102b10000a28ef00020037000a28ef00000000003a
:102b20008560a9000080fa003400f9004f03be0060
:102b30004f02be004f01be004f00be003600f9003c
:102b4000004006003600f800809fbe00829fbe0055
:102b5000849fbe00869fbe003400f8000000200065
:102b6000a00188000600fa00014280000000280051
:102b7000008060000000e0000d00320041e8a90084
:102b8000c1118000010f78001e007800e30f500093
:102b900004003600700520009e007800808f5000f1
:102ba000fb00360050052000c0118800f8003700f7
:102bb000901180006e0060000000e0001300320001
:102bc00090118000640060000000e0000c00320002
:102bd0004028ef0000000000511680000000240093
:102be000008060000000e000fbff32004094020023
:102bf0000000000030a2a80041e8a800e40037006f
:102c00004094020000000000e1003700b011800095
:102c100020479800504080008000eb00a200200078
:102c200003002000820f5000838f5800d6003e0022
:102c3000006001000a003700180037002800370044
:102c40003400370046003700520037006400370078
:102c50006f0037007a00370097003700b800370060
:102c6000ae40900020c4b30080cf500008003a006e
:102c70002e4090000080fb00a040880040a8a800e3
:102c8000504080000000e80050408800c00037003d
:102c90004094020000000000bd003700ae409000ec
:102ca00020c5b30080cf500009003a002e409000ac
:102cb0008080fb00a040800000804000a040880091
:102cc000504080000000e80050408800b00037000d
:102cd0000a28ef004094020000000000ac0037001a
:102ce0002e4090008080fb002080200001087800aa
:102cf0002e4090008080fb00a040800000804000bb
:102d0000a0408800504080000000e800504088004b
:102d10009f0037002e4090000080fb0020079800a5
:102d200020802000900078002e0090004800dd00f8
:102d30008080400020802000010878002e40900014
:102d40008080fb00a040800000804000a040880000
:102d5000504080000000e800504088008c003700a0
:102d60002e4090008080fb00208020001100980001
:102d70002e4090008080fb00a0408000008040003a
:102d8000a0408800504080000000e80050408800cb
:102d90007f0037002e4090000080fb002007980045
:102da00020802000900090002e0090004800dd0060
:102db0008080400020802000110098002e4090006c
:102dc0008080fb00a040800000804000a040880080
:102dd000504080000000e800504088006c00370040
:102de00020802000ae409000414098002e4090008e
:102df0008080fb00a040800000804000a040880050
:102e0000504080000000e80050408800600037001b
:102e100020802000ae409000514098002e4090004d
:102e20008080fb00a040800000804000a04088001f
:102e3000504080000000e8005040880054003700f7
:102e400020802000100078000000e00008003a0018
:102e50002e4090008080fb002080200031009800f0
:102e6000504080000000e800504088000e0037000d
:102e7000b00321006040880060408000ae409000b8
:102e8000014878000000e800604088002e40900073
:102e90008080fb00a040800000804000a0408800af
:102ea0001000200080408800504080000000e800b2
:102eb00050408800360037002080200090007800c5
:102ec00080408000808f500008003e002e4090001f
:102ed0008080fb002080200031009800504080005e
:102ee0000000e80050408800290037008040800042
:102ef0000000e800804088008140800040062000fb
:102f0000808f500003003600409402000000000053
:102f10001f00370060408000ae40900001487800fc
:102f20000000e800604088002e4090008080fb0098
:102f3000a040800000804000a040880014003700be
:102f40002e4090000080fb00200798002080200089
:102f5000b00090002e0090004800dd00808040000e
:102f6000208020003100980020802000b0009000d8
:102f7000a0408000808f500001003a004088a800e7
:102f80000a28ef00020037000a28ef0000000000c6
:102f900087c0a9000080fa003400f9004f03be008a
:102fa0004f02be004f01be004f00be003600f900c8
:102fb00000400600809fbe000000fa00b044800080
:102fc000c144800061004000e0804800b0448800b7
:102fd000c14488008460a9000080fa004f00be0050
:102fe000004006000040da000000fe00000005007e
:102ff0003200f800910188008002780062004000f1
:103000003549ba00e08048003204e0000410a7000f
:10301000100032008301e9000e0032002549ba0099
:103020003204e0000410a7000a0032008301e90026
:10303000080032000408a300eeff320015c9ba00f0
:103040003204e0000410a700020032008301e9000e
:10305000e8ff3a003200f90000000600839f680094
:103060000100e00002003d0060001000e080180058
:103070000300e00002003d0060011100e081190042
:10308000050007004f00e00002003b006000100058
:10309000e0801800000006006022b8000602200050
:1030a0000000d0008180d2000482d2008582d2004c
:1030b0000000a0000202520083825a000300310087
:1030c0000202420083824a000000a1000603e900d8
:1030d000f3ff3a0000000600efff07000400be0007
:1030e00000000600889fbe008a9fbe003004420098
:1030f000b0844a0030054b0090854b006000b10061
:103100000898be000a90be000440e10005c8e10036
:1031100006d0e10007d8e10002003100680040005d
:103120001008e8004f05be004f04be000000060076
:10313000889fbe008a9fbe003004be002005be00ee
:103140000418540005985c0006185d0007985d009f
:10315000110020000440e10005c8e10006d0e100b4
:1031600007d8e100010039008000eb001088100052
:103170004f05be004f04be00000006001200fa001a
:10318000889fbe008a9fbe008c9fbe00e0b79f0054
:10319000f1b79f0082bf9f0093bf9f000605be004e
:1031a0000404be000000eb00d0b79f00c0b79f0032
:1031b000b0b79f00a0b79f0090b79f0000067800af
:1031c0005fb19700cfb09700820141003fb09700f8
:1031d0000200e00004003d00370007007e80570039
:1031e000c0ff070003003700330007007e80570050
:1031f000cfff0700dfb697000d00e0000c003500a0
:103200006fb29700ffb297000fbb97009fbb97006c
:1032100010002000010020006011b80000027200c0
:103220008182720002037300838373001b00070016
:103230000c06e80001042000810f5600e0ff3a0070
:103240000d00e00004003d000802be000a03be00bd
:103250007e805700a3ff07005fa897000000e000f2
:1032600005003a001fb29700afb297003fb3970036
:10327000cfb39700090007006fb09700ffb0970029
:103280000fb997009fb997004f06be004f05be00cb
:103290004f04be000080fa00000006000100070095
:1032a00000000600a4b79f00b5b79f00c6b79f00f7
:1032b000d7b79f00000006004f09de008281710031
:1032c000b3b79f004f01de00818040008280700014
:1032d000a1b79f008fb097004f09de0000004000ab
:1032e0000200700090b79f007fa897004f01de009a
:1032f000818040008280700081b79f000d00070030
:103300004f3ade000000400004007000f0af9f0064
:10331000080007000402420085824a0006034b00b1
:1033200087834b00dfff07000802be000a03be00d0
:10333000000006002fb29700bfb297004fb397006e
:10334000dfb3970000000600881f780018002000f7
:10335000881f780089ff07008f87e9004f047800f5
:1033600000000600801feb0084ff07008f87e90044
:1033700000000600889fbe008a9fbe00e00f50003c
:10338000e08f5800e00f5900e08f59000c003d001d
:103390006044b8006055b8000000540081805c00b3
:1033a00002015d0083815d00180020001500070008
:1033b00008003d00180007000004eb00050037007e
:1033c0000004eb000f00070002003d0012000700a0
:1033d00018002000dcff07000800e00006003200b3
:1033e0006022b8006033b8000000520081805a00ab
:1033f00002015b0083815b004f05be004f04be00ed
:1034000000000600e00f5200e08f5a00e00f5b0062
:10341000e08f5b00000006006044b8006055b80013
:103420000402540085825c0006035d0087835d0012
:1034300000000600889fbe008a9fbe008c1f780097
:10344000e00f5000e08f5800e00f5900e08f590066
:103450000d003d006044b8006055b8000000540005
:1034600081805c0002015d0083815d001c00200002
:103470000820e10009a8e1000ab0e1000bb8e10072
:103480000d003d00080037000006eb00e00f520081
:10349000e08f5a00e00f5b00e08f5b0006003d000c
:1034a0006044b8006055b8000402540085825c0096
:1034b00006035d0087835d00aaff07000c00e000a3
:1034c000060032006022b8006033b80000005200ed
:1034d00081805a0002015b0083815b004f06780007
:1034e0004f05be004f04be0000000600889fbe00ce
:1034f0008a9fbe008c1f78000006eb00e00f500092
:10350000e08f5800e00f5900e08f590007003d00a0
:103510006044b8006055b8000000540081805c0031
:1035200002015d0083815d001c002000e00f52005d
:10353000e08f5a00e00f5b00e08f5b0007003d006a
:103540006044b8006055b8000402540085825c00f5
:1035500006035d0087835d000c00a2000c000700dd
:103560000c00e000060032006022b8006033b800b2
:103570000000520081805a0002015b0083815b00e1
:103580004f0678004f05be004f04be000000060045
:10359000889fbe008a9fbe008c9fbe000404b800b6
:1035a0000506b8008904460060854e000606b8008e
:1035b0000a054600e0854e000706b8008b05460068
:1035c000040eb800890446000a854e00e0854d00cf
:1035d000050eb8000a0546008b854e00060eb800a1
:1035e0008b0546000416b8000a0546008b854e0080
:1035f0000516b8008b054600041eb8008b05460072
:103600000800be000a01be004f06be004f05be0006
:103610004f04be00000006000000fa006881570059
:10362000cfb897008b0207000080fa000000060068
:10363000af00070007010700b8010700e00107001d
:1036400039010700db02070086023700800178009d
:1036500002003700b15978000201e9000200e000e1
:10366000fcff3a0000000600889fbe008a9fbe0053
:10367000800478000200e0005b0032000140780026
:10368000814c780082814400f1f99f00e20f5100e3
:103690005500360091449800a1449800e1f99f003c
:1036a000d1f99f00e60f51004f003600b144980059
:1036b000c1f99f00e80f51004b0036000905ea00f0
:1036c000630565000a8444000a055100c1ff2f000c
:1036d000010565000080fb008000eb001210200057
:1036e00013102000e80b0700008cbe000a01440004
:1036f00060b99f0071b99f00e80f55003a0036008d
:103700002004980031049800400498005104980067
:1037100020b99f0031b99f0040b99f0051b99f0067
:10372000f80f5500300036006004980071049800ce
:10373000000c9800110c9800200c9800310c980097
:10374000400c9800510c980020b19f0031b19f00af
:1037500040b19f0051b19f0060b19f0071b19f00c7
:1037600000b99f0011b99f00640164007801410015
:1037700002044400020555006011b8000203be00b7
:103780000002be000403be006022b8000000720008
:103790008180720002017300838173001000370082
:1037a000009cbe000294be004004980051049800a2
:1037b0006204980073049800000c9800110c9800a3
:1037c000220c9800330c9800400c9800510c980083
:1037d000620c9800730c98000a02b1000802b00055
:1037e000ff0f5500eeff3e00090078004f05be00b8
:1037f0004f04be00000006000000fa006881570078
:10380000cfb89700360007000080fa0000000600dd
:1038100080007800040037003104e00002003a0024
:103820000000510000000600010178000108a3001b
:10383000f9ff3a008101780031017800f4ef2f00a0
:10384000020242000281ea0002016200040828002c
:1038500004016100f7ff3200830078000101780065
:103860003104e000fdff3a000000510000000600b6
:103870008001eb000200e00010003200000278003e
:1038800001037800b44178000304e000080032002e
:10389000b14278000504e0000500320082034000d8
:1038a000848f53000200320085cf5100f4ff3200b4
:1038b0008381fb001680fb008081510003007800ab
:1038c00000000600881f78000004780008007800d7
:1038d00092040700080078004f04780000000600fa
:1038e0008201780001017800f1ff2700ce04370043
:1038f000ec874700889fbe008a9fbe008c9fbe0059
:103900008e1f7800000678000104780018079000e8
:103910002805900098067800cdb79f00b805900064
:103920003202be002203be000400be000601be003b
:103930004f18de006011b8008000eb00d0b79f0088
:10394000e1b79f00f2b79f0083bf9f00800478001b
:103950000900e000060032006000b8006011b80005
:1039600004025000858258000603590087835900dd
:103970000e00e000020035000d10a100cdb79f0041
:103980000900e00005003a004fb097000028a300ae
:1039900002003a000038a300020032008a00e90069
:1039a000010037008a007800f8815700a20020004b
:1039b00008007800860007000900e00003003a00d4
:1039c000cfb097000128a300080032000000e900f2
:1039d00000814500b1c2b3000900e00001003200df
:1039e000d1c2b30001497800050037000138a300b7
:1039f000030032000000e90001c2b30081757800c5
:103a0000480190000201e90000015100808045005a
:103a10004fb297008a0178000c007800300207004e
:103a20009c0090000188a3000400320098009000e0
:103a3000810f500001003d00010078004f07780021
:103a40004f06be004f05be004f04be00cf00b100c0
:103a5000000006000200fa00889fbe008a9fbe0098
:103a600080057800010478000200780018019000b9
:103a70002805900098007800b1bf9f00b80490001e
:103a80000200e000020035000110a100b1bf9f005c
:103a9000ea815700820020008a0078003002be00d0
:103aa0002003be0008007800490007003fb99700d6
:103ab000f0006100030032000000e90001c3b30020
:103ac000817478003fb99700e8006100030032007c
:103ad0000000e90001c2b300817478004801900041
:103ae0000201e90000015100808044003fba9700c4
:103af0008a0178000b007800f90107009b00900014
:103b00000188a3000400320098009000810f50004b
:103b100001003d00010078004f05be004f04be00cb
:103b20000080fa0000000600ea874700889fbe0078
:103b30008a9fbe008e1f7800000478000300780082
:103b40007287570084e2260055c72600049fbe00f6
:103b5000c3962200030f78006c875700004feb00dc
:103b600011059000a1049000910578000200e0008a
:103b70000200320002077800010037007287570008
:103b80000000e00002003a000e00780020ff07006d
:103b90000a00e000030035008a0f500001003600e3
:103ba0000a0078000b027800890178000001780093
:103bb0008e00780008007800c90107004f077800e0
:103bc0004f05be004f04be00af00b100000006006c
:103bd000f4874700889fbe008a9fbe008c9fbe006e
:103be0008e1f78000605be000404be0081bf9f0042
:103bf00082b79f00f3b79f00b0009000e1b79f002d
:103c00001301780092b79f0090069000400090004a
:103c10000000e900000678000d00e00001003d0012
:103c20001d0020008040eb00efb19700817178000b
:103c30001e0020001f0037000c06e9000fb097009f
:103c4000cf80de006109b900a0b79f00b1b79f0027
:103c5000c2b79f00d3b79f000203be000002be00a0
:103c60000800be000a01be00befd07000007780084
:103c70000e4078000043b000efb0970080707e00e7
:103c80008d06e9000fb997000201e90082bf9f008d
:103c90002fb29700bfb297004fb39700dfb39700e2
:103ca0000800be000a01be00a7fd07000205be0015
:103cb0000004be000c00e0000d003400e00f5400d2
:103cc000e08f5c00e00f5d00e08f5d00daff3a00fe
:103cd0000d00e000d8ff3c008fb997000300e00022
:103ce000030034001fb097000018a300d2ff3a0071
:103cf0000e00e00002003a00ffb097001140a10062
:103d00000c0078004f0778004f06be004f05be003c
:103d10004f04be004f01b100000006000200fa008f
:103d2000889fbe008a9fbe000005780001047800cd
:103d30000200780018019000a80490009800780014
:103d4000b1bf9f00b80590000200e00002003500fe
:103d50000110a100b1bf9f00ea815700a20020001e
:103d6000890078003002be002003be000800780001
:103d700097ff0700480190000201e900000151008f
:103d8000808045003fba9700890178000a007800da
:103d9000530107009a0090000188a300040032003c
:103da00098009000810f500001003d000100780054
:103db0004f05be004f04be000080fa000000060060
:103dc000fa874700889fbe008a9fbe008c9fbe0076
:103dd0008e1f780080047800010478008205780046
:103de000180190002805900018077800b80090008e
:103df0000200e000020035000e10a10001003700b3
:103e00001200200070006700e0b79f000900320038
:103e10003b02be002b03be00e00f5200e08f5a00b1
:103e2000e00f5b00e08f5b00020032008a86e90051
:103e3000010037008a067800e8026700f5b79f00a6
:103e4000010032008d06e9003b02be002b03be00dc
:103e5000e4af9f00f5af9f0086b79f0097b79f0024
:103e6000480690000c06e9000040eb0080707e00e0
:103e7000efb297007fb29700890378008104780041
:103e8000d8af9f00020478008bbf9f008a0578009e
:103e9000034578002a0037000c06e9006fab970055
:103ea0006f006300e90f500002003c000003b00007
:103eb000010037007005b0000a03fb001604b100d2
:103ec000f90f53000c003e00000378000650a000dc
:103ed0001606b100f90f530007003e00b4b79f006b
:103ee000a5b79f00c7b79f0048030700cfb397004f
:103ef000afb297003fb2970080747e000804e900db
:103f00008d06e9006fa89700ffa897000fb19700f2
:103f10009fb19700460020008301d1000281d300a9
:103f20008180d3000080d3000603e900faff3a0045
:103f3000e0af9f00f1af9f0082b79f0093b79f0053
:103f4000e10f56000f0034006fa89700ffa89700fc
:103f50000fb197009fb19700e00f5000e08f58001d
:103f6000e00f5900e08f5900cbff3a000800e00055
:103f7000c9ff3c000d00e000020034000e18a30051
:103f8000c5ff3a0089007800f4b79f0087047800e5
:103f90005fac97008a4178000b0578008fbd9700d1
:103fa0000500e000100032003b02be002b03be0003
:103fb000e4af9f00f5af9f0086b79f0097b79f00c3
:103fc000e00f5200e08f5a00e00f5b00e08f5b00d3
:103fd000050032000c06e90083707e000c06e90043
:103fe00000c3b30080707e00ffb297000500e000c0
:103ff000030032000c06e90000c2b30080707e00ae
:10400000480190000201e9000c0151008c80400041
:104010000e0278008a01780009007800b0000700dd
:10402000990090000188a3000400320098009000dd
:10403000810f500001003d00010078004f0778001b
:104040004f06be004f05be004f04be00af01b100d9
:10405000000006008201780001017800f1ff2700ce
:104060001903370084082000848f50001d0032009f
:104070000d003c0014082000848f500027003200ff
:1040800002003c000408200004003700240820003f
:10409000848f50003400320044082000848f500088
:1040a00043003a0036003700040a2000848f500095
:1040b0002700320004003c0004092000848f5000d7
:1040c0003b003a0028003700020c2000828f50008d
:1040d0002f003200020f2000828f500034003a007f
:1040e0002b0037009380e9000200e0000500320059
:1040f000810978001102fb00cfa2de00612bb9001c
:104100002800370081097800114278000482fb0002
:104110008002eb006033b800220037001302780001
:10412000e40052000200e00005003200810978003e
:104130001102be004fabde00860378001900370085
:10414000810978001102be006033b8001500370005
:104150009380e9008109780011027800cfa2de0087
:10416000612bb9000f00370093027800e8805200fd
:10417000810978003102be002103be00090037002a
:104180009380e9000200e00002003200f1ff3700f6
:104190009380e90081097800110278008002eb0029
:1041a0006033b8000498be000690be001000050001
:1041b0000000050044082000848f500025003200d4
:1041c00008003c0014082000848f500014003200c6
:1041d00024082000848f50002400320004082000ae
:1041e0000c00370004092000848f50001f003200ab
:1041f00004003c0084082000848f500024003a0012
:104200000e003700040a2000848f50001100320095
:10421000040c2000848f50001d003a000d00370070
:104220009380e90081097800910078000108780006
:10423000cf91de008288be00140037009380e90031
:1042400081097800910078000108780082487800a0
:104250000e0037009380e900810978009100780012
:104260000108780082087800080037009380e90090
:104270008109780091007800010878006112b90086
:10428000612bb9008498be008690be001000050026
:1042900000000500889fbe000004780048009000e0
:1042a00082047800808f540001003600800478007a
:1042b0000901780058009000e4fc070058009000c5
:1042c0000900400050049800c80090008984500004
:1042d000490498000048eb004f04be0000000600af
:1042e000f2874700889fbe008a9fbe008c9fbe0059
:1042f0008e1f7800800478000105780002047800a1
:10430000830578006107620002003a008b0f5400b9
:1043100008003900080178008a0078000900780058
:10432000dcff07008b0f540002003900880578007d
:104330001e003700088655000c017800f00f56006b
:104340000100360002012000010220007e8057009b
:10435000c5fc07008c06780005003700020120002c
:10436000fe80570009007800caff0700f08656005b
:10437000ef8f5600f9ff3e004461de0000ff2f0082
:104380000091b90002014600fe8057000900780044
:10439000c0ff07000e00e00004003a0008017800aa
:1043a0008a00780009007800baff07000b00780047
:1043b0004f0778004f06be004f05be004f04be00f9
:1043c0002f01b100000006000000050000000500fc
:1043d00000000500000178000040eb008080fb0039
:1043e00081804000e39b200063c278000404e00069
:1043f00003003a00f09b200060c078000000060037
:1044000092017800934f520004003a00f09b200084
:1044100060c078000309e800010037000040e800b0
:10442000ea4f5000edff360000000600f687470017
:10443000889fbe008a9fbe008c9fbe008e1f7800a2
:1044400000057800010478008305780004067800f0
:104450000000eb00c0b79f008080eb00d1b79f0049
:10446000e0b79f00f2b79f000008200080bf9f00c8
:1044700098007800010078008004eb00010037000c
:104480008904e800304178000204e00003003200b3
:1044900053c2b300834f5100f9ff3a000900e00016
:1044a00004003200090178000a00780079ff070053
:1044b000188c44001807780050c2b3009e4f1000bb
:1044c0003f013a000e07e8000e0c7800100037009c
:1044d000cfb097000100a0000b003700cfb09700cd
:1044e0000110a00008003700cfb097000120a00005
:1044f00005003700cfb097000130a0000200370060
:10450000cfb097000140a000c1b79f00000ce800a9
:104510001800780090407800b2c2b30082cf5000fb
:10452000f1ff320007003c0002c2b30082cf50000e
:10453000f0ff320032c2b30082cf500007003a00d1
:10454000efff3700d2c2b30082cf5000e0ff32004d
:1045500002c3b30082cf5000e0ff3200a2c2b3001a
:1045600082cf50000d003a00000ce8001c80e900ea
:10457000000e780010007800e0b79f000000e00017
:104580000f003d00cfb097000100a200c1b79f000f
:104590000000ea00e0b79f0009003700390107007a
:1045a000e0b79f0001003700000ce8001800780019
:1045b0009000fb000103b100e98f5000faff3600c4
:1045c0004fb097000008a300020032000010a100c5
:1045d000c0b79f0018007800e1c2b30090cf100070
:1045e00016003a008000eb00d1b79f000000e80001
:1045f000000c7800a1c2b30090cf100006003a0072
:10460000000ce8001c80e900000e78001000780023
:10461000d0b79f00090037001a010700d0b79f00ec
:1046200001003700000ce800180078009000fb0043
:104630000103b100e98f5000faff3600080078004e
:1046400064ff070080467800180078001000fb0027
:104650006701070091062000810f500038003200ea
:1046600012003c0041062000810f5000340032004f
:104670000a003c0011062000810f5000200032008b
:1046800031062000810f5000a000320051022000ae
:10469000810f5000bc003a00b400370071062000c2
:1046a000810f5000b8003c0088003700010720004f
:1046b000810f50005c00320007003c00e106200042
:1046c000810f50007a003200f1062000810f500067
:1046d000ad003a003900370051072000810f50002b
:1046e0002700320081072000810f50004200320075
:1046f00031072000810f5000a3003a008f003700df
:104700008d80fb000c01780000fe2f000f004000a0
:10471000920107000000e000a800320018007800b5
:10472000000ce8009041780002fe2f000f014100cc
:10473000f88057000a007800c40107000e00370017
:104740008d80fb008c0178001200200000fe2f00fd
:104750000f00400043fe07000000e0009700320019
:10476000180ce80002fe2f000f014100f8805700ee
:104770000a0078005efc0700808444009000370047
:104780008d80fb008c0178000001eb0000fe2f0003
:104790000f00400033fe07000000e00087003200f9
:1047a000180ce80002fe2f000f014100f8805700ae
:1047b0000a00780059fd0700efff37008d80fb00ed
:1047c0008c0178000001eb0000fe2f000f0040007c
:1047d00024fe07000000e00078003200180ce8001a
:1047e00002fe2f000f014100f88057000a007800f8
:1047f00098fc0700e0ff37008d80fb008c017800fb
:104800000001eb0000fe2f000f00400015fe070026
:104810000000e0006900320018007800000ce80099
:10482000904178001c0037008c0178000001eb00fb
:10483000010f200000fe2f000f00400009fe0700be
:104840000000e0005d003200180ce8000fb0970097
:104850009fb097002fb19700bfb19700e00f5000b5
:10486000e08f5800e00f5900e08f590009003a002e
:10487000cfb597006fb49700609b2000e4fb070062
:104880000b0278008801780000017800619b20000d
:104890004700370083c7b30002fe2f000f0141001d
:1048a000f88057000a00780045fd0700b2ff370086
:1048b0000b8144008d80fb008c01780000fe2f00ee
:1048c0000f0040003bfe07003c0037008d80fb00de
:1048d0000c01780000fe2f000f0040001f010700b0
:1048e0000000e0003500320018007800000ce800fd
:1048f0009041780002fe2f000f014100f880570020
:104900000a007800f40307009bff370000c8b300db
:1049100080cf560029003a00180ce8001c80e900fe
:10492000000e780010407800e0df9f0013002000a8
:10493000e2fd2f000f0141000800370000c8b3005e
:1049400080cf56001d003a00180ce8001c80e900da
:10495000000e78008001eb0010017800f88057000d
:104960000a00780070fc070083ff370000c8b3001e
:1049700080cf560011003a00180ce8004fb29700a3
:10498000efb19700080037000e0c78000000eb0034
:10499000c0b79f00e0b79f000080eb00d0b79f003a
:1049a0000002eb008401780012002000c19b20006f
:1049b0000a0078004afe07006fff3700180ce80075
:1049c000090078004f0778004f06be004f05be0073
:1049d0004f04be006f01b100000006008200fa0023
:1049e000889fbe008a1f7800000578008204780046
:1049f000c13f9f000004eb0010003700090278005f
:104a000088017800a2f72f000f01410081f72f00e5
:104a10008f8040000a00780084fe070008004000f4
:104a2000880f500004003d00b004200080ea880098
:104a30000084eb0004003700000478004f38970032
:104a40001004e000edff3a00080078004f05780000
:104a50004f04be000080fa000000060080007800cd
:104a60001000200002022000828f5000040032005b
:104a7000e9805000e48f5000010036000000eb0098
:104a800000000600889fbe008a1f7800000578009d
:104a90000a047800984478000805e8000900fb0043
:104aa000eeff07000000e000f9ff3a00b0c2b300db
:104ab00080cf540005003200d0c2b3008000eb006c
:104ac00080cf540005003a00020037008000eb0060
:104ad00001003700110020000804e8000000eb008e
:104ae000030037006a02b900020052000003b00060
:104af0003801fb0003fd2f0082814100e98f510046
:104b0000f8ff36000100e00001003a000000ea0072
:104b10004f0578004f04be0000000600881f780093
:104b20008101780000027800808268000508a300f7
:104b300002003200210037000201e9000300780082
:104b4000040478000308a300070032000200e0001c
:104b500021003200b3407800015a78000104e000df
:104b6000f5ff3a00020037000200e0001a003200b0
:104b70001004e00003003a0017003700031c78001f
:104b80000281e90080007800e10f51000800360042
:104b9000b0017800f5ef2f00838242000382ea0023
:104ba000048262000508280005026200f3ff32005b
:104bb00008007800010037000201e90000047800d5
:104bc0000200e00004003200b14178000358780090
:104bd0000304e000f8ff3a008000eb0008007800d2
:104be000a1fa0700080078004f04780000000600d2
:104bf000f1fb2f0080804000f98f500001003e0043
:104c00000050a00000000600f9ff3700f1f92f0066
:104c100080804000f98f500001003e00f005b20096
:104c200000000600f9ff37000f04b0008e1f780067
:104c300002027800030178000000e0000200320068
:104c400000077800020037000efc2f000f07470016
:104c50008002eb000100e000010032008102e90067
:104c60000f007800e003b1001d0009000018eb0000
:104c70000080eb0090a79f0023102000a3a79f00b7
:104c8000bea79f00c1a79f00d5a79f000100e0001d
:104c900003003d00b104200081ea880007003700ce
:104ca000004feb00fea79f00eea79f008400780056
:104cb00020fc2f000f004000470007004f0778003e
:104cc0000f04b10000000600f28747008e1f780035
:104cd00002027800030178000000e00002003200c8
:104ce0000007780001003700728757008002eb0050
:104cf0000100e000010032008102e90070805700ed
:104d0000060009000018eb000080eb0080bf9f0048
:104d10002310200093bf9f00aebf9f00b1bf9f0034
:104d2000c5bf9f000100e00003003d00b10420006a
:104d300081ea880006003700004feb00eebf9f00bd
:104d4000debf9f00840078007080570030000700ad
:104d50004f0778002f01b10000000600881f78007f
:104d60000004780000082000808f500017003500f4
:104d700010082000808f50000b0034003008200005
:104d8000808f500011003a00920078006880500037
:104d9000000978003002be002003be00049cbe0063
:104da0000694be000700370092027800648052002b
:104db000000978001000be00d3050700009cbe006b
:104dc0000294be0010002000010037000000eb003c
:104dd0004f047800000006000200fa00881f7800e7
:104de00000047800e2bf9f0064815700080078004b
:104df000fafe0700980090000148a300010032006d
:104e00000080eb004f0478000080fa0000000600ec
:104e10000200fa00881f780000047800e2bf9f00bb
:104e20006481570008007800ecfe070098009000ad
:104e30000148a300010032000080eb004f0478001d
:104e40000080fa0000000600000006003e00fa00a4
:104e5000889fbe008a9fbe008c9fbe0010079800ee
:104e60008346780011007800400f9800910190006f
:104e70004307980021029000240f9800c10290007f
:104e8000050f7800b1009000611f98003204be0049
:104e90002205be00281f9800391f98004a1f98005d
:104ea0005b1f98006022b8006033b8000800be00a5
:104eb0000a01be008a0507000000e00009003d006d
:104ec0000800be000a01be0003f0a200201f9800e7
:104ed000311f9800421f9800531f9800d0c2b300a2
:104ee00004003700ce0890000128a300090032001a
:104ef000b0c2b3006e19900000497800ae0990006e
:104f00008301e900330f980014002000540f98002b
:104f100010003700ce0a90000538a30009003200c7
:104f200000c2b3006e1b9000004b7800ae0b9000e7
:104f30008703e900370f980018002000580f9800e9
:104f400004003700ae0c9000390f98000005eb000c
:104f50005a0f98002e189000be1890004e1990001d
:104f6000de199000b8ff0700f4ff2f00f5ff2f00b7
:104f7000f6ff2f00f7ff2700040260008582600023
:104f800006036100878361006000b8000200200012
:104f900003ff27000020e10001a8e10002b0e100ca
:104fa00003b8e1000c003a008d06fb001d04b100bf
:104fb000ee1d9000de0890000180450001d2210026
:104fc000f98f56000100360041d221001d0507006f
:104fd00040d221002f0237000020e10001a8e100ab
:104fe00002b0e10003b8e1000c0036008d06fb00c2
:104ff0001d04b1006e199000de099000030041000d
:1050000081d22100f98f560001003600c1d2210063
:105010000c050700c0d221001e02370000c3b300f8
:105020006e1a9000de0a900000f27a000500e80097
:10503000000142008d00fb00f6fb2f0006834000bc
:105040002607980081c7b300f90f530001003e0006
:1050500081c5b300014978000000e800500f9800b6
:105060006022b8006033b8002e189000be1890007f
:105070004e199000de199000190507000000e000ad
:105080005e0032008003eb006044b8000a0020009c
:105090000bff230068079800790798000a0f980013
:1050a0001b0f980007067800050037000c06e80083
:1050b0006e0c9000fe0c90000e1590009e15900056
:1050c0000802be000a03be000800be000a01be00be
:1050d000790507000002be000203be00640f9800bd
:1050e000750f980006179800171798002e18900053
:1050f000be1890004e199000de199000f8040700c9
:105100000000e000e9ff3d006c0f98002a00370026
:105110006022b8000600200007fe23000800be0041
:105120000a01be005e0607006022b8006033b800c6
:10513000eb0407000000e00016003a006022b8000f
:1051400006002000073524000800be000a01be004a
:10515000530607000004be000205be006022b8002e
:1051600006002000073524002e189000be1890007d
:105170004e199000de199000490607000002be009b
:105180000203be00241f9800351f9800461f980098
:10519000571f98006022b8000600200007fe230079
:1051a0000800be000a01be003d0607000004be0064
:1051b0000205be000c06e9000802be000a03be009c
:1051c0002e189000be1890004e199000de19900025
:1051d000c30407000000e000cdff35000800be005a
:1051e0000a01be006007980071079800020f98003e
:1051f000130f98006c0f9800090037008000eb0037
:10520000610f98006022b8000600200007ff23000d
:105210006407980075079800060f9800170f98000c
:10522000ce029000800120000500e0000100350062
:105230004e0090000000e800300798006e049000d7
:10524000fe0490000e0d90009e0d900068179800cf
:10525000791798000a1f98001b1f98002e1c9000b9
:10526000be1c90004e1d9000de1d90000006eb005d
:105270003a0037006e129000fe1290000e1b900054
:105280009e1b90000800be000a01be0055050700e5
:10529000ad0707000002be000203be0024179800fd
:1052a000351798004617980057179800b50407005f
:1052b00080027800550798006e129000fe12900050
:1052c0000e1b90009e1b90002e109000be109000b0
:1052d0004e119000de119000f10507000002be00a3
:1052e0000203be000800be000a01be00ec04070075
:1052f0000004be000205be006022b80006002000c7
:1053000007fb23006e109000fe1090000e19900015
:105310009e199000e20507000002be000203be00d5
:105320006417980075179800061f9800171f9800bb
:105330000c06e800ce0290000500e00007003d00ea
:105340006022b8006033b8000800be000a01be0049
:10535000630407000000e000040032003e039000f8
:10536000860f5600c3ff3500010037003c07980048
:105370006022b80006002000070224006e10900092
:10538000fe1090000e1990009e199000c4050700b1
:105390000002be000203be00641798007517980053
:1053a000061f9800171f98000800be000a01be00e3
:1053b0004b0407000000e0000d0035006e12900065
:1053c000fe1290000e1b90009e1b90000800be0075
:1053d0000a01be00420407000000e00011003a008c
:1053e000de0290000508a300080032000d0037001f
:1053f0006044b8006055b8006817980079179800a5
:105400000a1f98001b1f9800060037006000b800b4
:105410006011b8006017980071179800021f98007b
:10542000131f98006e129000fe1290000e1b900049
:105430009e1b90002e189000be1890004e199000f0
:10544000de1990009c0407000002be000203be00ab
:105450006417980075179800061f9800171f98008a
:1054600079fe07000203be000002be00f0ff2f001d
:10547000f1ff2f00f2ff2f00f3ff2700000462006e
:10548000818462000205630083856300281f980001
:10549000391f98004a1f98005b1f98006000b800f1
:1054a0000200200003ff27000040e10001c8e100e6
:1054b00002d0e10003d8e100bbfe3200be0c900038
:1054c0008984e900291f98005e0e90008006eb0099
:1054d0005d0798002d1798006f0037006e0290004e
:1054e000fe0290000e0b90009e0b90006e1090003c
:1054f000fe1090000e1990009e199000b90407004c
:10550000110707000004be000205be001d040700cd
:10551000800078000100e00006003a002e109000a4
:105520000000e000030032008d06e8003d0f980007
:10553000330037005e0190000200e0000c003a00ea
:10554000ae1190000300e00009003200e0c2b30099
:105550006e1a900000727e000c06e800ae1a9000f1
:105560008502e900251f98001600200056079800c4
:10557000ee1b90000c8143000d00780007027800bc
:105580000300370003c3b300035978000000e900ab
:105590000000e000fbff3a00300f9800641f980005
:1055a0000d064600e98f500003003c000003200078
:1055b000010040000200370070052000010040009b
:1055c000ae009000f98f500006003e008000780089
:1055d0000150a0001106b100f98f500001003e00fb
:1055e0008afd07006e19900000717e000c06e8002d
:1055f0008d86ea00ae1990008d814100231f98002e
:105600006e029000fe0290000e0b90009e0b900028
:105610000800be000a01be00210507000002be000e
:105620000203be006e109000fe1090000e19900054
:105630009e1990001a0407000002be000203be007b
:105640006417980075179800061f9800171f980098
:105650006022b8000600200007fb23006e009000c7
:10566000fe0090000e0990009e0990000c050700b6
:105670000004be000205be00680798007907980084
:105680000a0f98001b0f9800ae1490008904e900df
:1056900029179800be0e90002e1590000a00ea000f
:1056a000be0590008b0f500004003d009e00780066
:1056b00065805000800f560088ff39005e01900021
:1056c0000200e0001e003a000d00e0007d00340002
:1056d000ce0190000300e0007a0034004e0a9000f2
:1056e0000408a30077003a00ee1a90008c80420074
:1056f000e0c2b300804878000d0078008501780092
:1057000002c3b300826878000000e900fcff3a00a1
:10571000631f98000c8646000c06e8002e1b9000c4
:105720000600e9000d005000201f9800040037001b
:10573000e0c2b300ee1b900080737e000c06e80010
:105740006e1c90000c0044000048eb009e047800a2
:105750008900e9000041eb0002f478008001eb00d1
:105760006e0d90000a00e00003003d000a05ea000b
:105770006a0f980013002000120020006e0a9000ab
:10578000810378002e1b90006e1c9000800678002c
:105790000900370081037800a500200011000900ee
:1057a0000502d8000002be000543b00005f47b00ee
:1057b0000201e9000603e9008700e9000400e000b7
:1057c000f4ff3a00e10f5100f2ff3200261f98006b
:1057d000681f98000d00780001024400b2c2b300b7
:1057e0000300e00001003200d2c2b300024a780098
:1057f0000101e900ee1990008280410003c7b30067
:105800002e029000f90f520001003e0003c5b300c4
:1058100083487800820f560001003d00090307000d
:10582000ce0a900063806200e20f500018003a0038
:105830002e1b90000684e9004240a90014003400a9
:105840006e189000f2f70700800044008100e80025
:10585000ee1b900081804300870178000200370032
:10586000e36078000000e900de0c9000890f500032
:10587000fbff3d00631f980009804100080178008c
:105880000103200078f707000005eb002a0f9800bd
:105890006e189000def707004e0a9000ae099000e7
:1058a00000017800ee1890001e0090008cfa0700ae
:1058b0004f06be004f05be004f04be000080fa0038
:1058c00000000600ce0d90000b48a30098ff3a00a0
:1058d0009bff3700000006004200fa00889fbe00d0
:1058e0008a9fbe008c9fbe0020079800110f980071
:1058f000034f980011007800400f9800910090002d
:10590000610f98009e099000a3019000330f98004a
:105910001e0a900044029000140798009e0a90000e
:10592000b5029000052798003204be002205be0093
:105930006022b8006033b8000800be000a01be0053
:10594000e70207000000e00003003d000bf0a200aa
:10595000d0c2b300040037004e0b90000628a3000d
:1059600009003200b0c2b3008e239000804b780053
:105970003e0890000000e900700f98001100200020
:10598000510f9800100037004e0990000238a30014
:105990000900320000c2b3008e21900080497800d7
:1059a0003e0a90000402e900740f980015002000e0
:1059b000550f9800040037003e0b9000760f9800ba
:1059c0008003eb00570f98000800be000a01be00dc
:1059d000c0ff0700f4ff2f00f5ff2f00f6ff2f0098
:1059e000f7ff270004026000858260000603610063
:1059f000878361006000b8000200200003ff2700d9
:105a00000020e10001a8e10002b0e10003b8e100dc
:105a100011003a000e4890008000fb001104b10014
:105a20000e219000de09900003004100f98f500024
:105a300002003e0001d321000100370041d32100c4
:105a40008002070040d3210071f707005e0a900032
:105a500004014000150037000020e10001a8e1002a
:105a600002b0e10003b8e100130036008e4a900056
:105a70008500fb001104b1000e239000de0b9000a6
:105a800007004300f98f500002003e0081d321003f
:105a900001003700c1d321006a020700c0d32100f2
:105aa0005bf70700de089000010140004e0a9000fd
:105ab000be099000500237006022b8006033b80081
:105ac0000800be000a01be00850207000000e000d9
:105ad0006a0032006022b8000600200007ff2300a1
:105ae0004417980055179800661798007717980084
:105af0008006eb000800be000a01be00001f9800ef
:105b0000111f9800221f9800331f98000e26900046
:105b1000070037008d06e8000802be000a03be0039
:105b20004417980055179800661798007717980043
:105b30006022b80006002000470224004e109000aa
:105b4000de1090006e119000fe119000d40307004b
:105b50000004be000205be000002be000203be003b
:105b60000e1890009e1890002e199000be199000fb
:105b70005b0207000000e000e6ff3d000c279800f4
:105b80000006eb004e149000de1490006e1590009d
:105b9000fe1590002500370040ed2f00808f560045
:105ba00019003d000c00e00016003a006022b80029
:105bb00006002000073524000e1890009e18900063
:105bc0002e199000be199000b50307000002be0018
:105bd0000203be00041f9800151f9800261f98009e
:105be000371f98006022b800060020000735240007
:105bf0000800be000a01be00a90307000004be00a1
:105c00000205be001c0020006022b8000600200033
:105c1000470224000800be000a01be00f10207008e
:105c20000004be000205be008d06e9000802be00a9
:105c30000a03be000e1890009e1890002e199000c6
:105c4000be199000260207000000e000d2ff3500d8
:105c50000800be000a01be004017980051179800c6
:105c600062179800731798000e1c90009e1c9000fd
:105c70002e1d9000be1d9000080037006022b80065
:105c80000600200007ff23004417980055179800ce
:105c900066179800771798008006eb008e4a9000f0
:105ca0000500fb00d2fb0700104f98006e0b900020
:105cb000600020000600e000010035006e08900042
:105cc00071c6b3009e4b900081cf53000a003a008a
:105cd000ee0890000100e000cf013200cf01370054
:105ce0008d0f5000d3013c00001f980052c6b30036
:105cf000425f98001e0037009e499000435f980065
:105d00000200370064c6b300445f98000000e8005a
:105d1000001f980060c6b300ce5a900080cf52009a
:105d200013003a000d00e00008003d006000b800dc
:105d30000200200003ff230040179800511798002d
:105d400062179800731798008006eb0061c6b300d5
:105d5000415f980070c6b3001e499000804f51000b
:105d6000030032008e1990008d814100031f9800be
:105d70004e129000de1290006e139000fe13900001
:105d8000441f9800551f9800661f9800771f9800c1
:105d90000800be000a01be00001798001117980005
:105da00022179800331798000006eb000802be0087
:105db0000a03be005407980065079800760798000c
:105dc000070f9800310037004e1a9000de1a90003d
:105dd0006e1b9000fe1b90000e1090009e10900015
:105de0002e119000be1190007e020700d60407001d
:105df0000004be000205be00e20107008002780038
:105e0000250f98004e1a9000de1a90006e1b90002d
:105e1000fe1b90000800be000a01be002003070020
:105e20000e1290009e1290002e139000be13900050
:105e30001b0207000002be000203be0007f0a20022
:105e40000417980015179800261798003717980020
:105e50006022b80006002000470224004e1890007f
:105e6000de1890006e199000fe1990005d02070088
:105e70000002be000203be00441f9800551f980098
:105e8000661f9800771f98000c06e8008e1a900095
:105e9000850f5600ccff35005e049000ee049000a4
:105ea0007e0590008e0d90006022b8000600200054
:105eb000470124004e189000de1890006e199000e3
:105ec000fe199000f60207000002be000203be00a9
:105ed000441f9800551f9800661f9800771f980070
:105ee0000e1090009e1090002e119000be11900098
:105ef0007b0107000000e0000f0035004e1a900003
:105f0000de1a90006e1b9000fe1b90000e10900099
:105f10009e1090002e119000be119000700107009d
:105f20000000e00011003a00ae0a90000508a3004e
:105f3000080032000d0037006000b8006011b800a2
:105f4000401f9800511f9800621f9800731f98000f
:105f5000060037006022b8006033b800441f980084
:105f6000551f9800661f9800771f98004e1a9000e2
:105f7000de1a90006e1b9000fe1b90000800be0011
:105f80000a01be00cc0107000002be000203be00f1
:105f900004179800151798002617980037179800cf
:105fa0006022b80006002000470224004e10900036
:105fb000de1090006e119000fe119000b8020700f4
:105fc0000004be000205be000002be000203be00c7
:105fd0000e1090009e1090002e119000be119000a7
:105fe000440107000000e000090035008d06e800cc
:105ff00060c6b300ce5a900080cf520008003a002d
:106000000e1b90000603e800061f980011003700e1
:106010004e149000de1490006e159000fe15900056
:1060200050c6b3004e599000804f510009003a000d
:106030000802be000a03be00441f9800551f9800c6
:10604000661f9800771f98008002eb0045179800a4
:10605000070037000800be000a01be00401f98007c
:10606000511f9800621f9800731f98004d179800e9
:106070005e0e90000001eb00220f9800320798009e
:10608000520798000d0f78006a0037004e1a9000f2
:10609000de1a90006e1b9000fe1b90000e10900008
:1060a0009e1090002e119000be119000cd010700af
:1060b000250407000004be000205be0031010700f0
:1060c000e90f50000100340090002000ce0990003c
:1060d0000348a3000c003a000000e0000a003a0068
:1060e00071c6b3001e4a9000814f520006003a006c
:1060f000ce1290000500e00003003d002e0b900042
:106100008606e80023003700be0390000700e00089
:106110000c003a00ce1090000100e00009003d00a4
:10612000e1c2b3000e21900001717e000c06e80070
:10613000fe0990008301e900730f9800140020000d
:10614000340798008e2290000c814200ae0e900021
:10615000850178000300370001c3b30001597800be
:106160008d06e9000d00e000fbff3a0003279800d0
:106170002e0b9000060646000043b00080717e00a2
:106180000c06e8000680ea00fe0b900080834300c6
:10619000770f98004e1a9000de1a90006e1b900048
:1061a000fe1b90000800be000a01be003c02070072
:1061b0000e1290009e1290002e139000be139000bd
:1061c000370107000002be000203be0007f0a20074
:1061d000041798001517980026179800371798008d
:1061e0006022b80006002000470224004e189000ec
:1061f000de1890006e199000fe19900079010700da
:106200000002be000203be00441f9800551f980004
:10621000661f9800771f9800ce1290008502e90053
:10622000451798005e0390000603e80056079800a3
:106230002d0f9800de0390000e189000808f530001
:1062400005003d009e089000410090006500500050
:10625000800f56008dff39009e0678003e019000a9
:106260000200e00007003a00ce0990000348a300b6
:1062700004003200e0c2b3000e22900000727e00e3
:106280000c06e8008e2290000c8042000048eb00d3
:1062900051c6b3004e5b9000814f530038003a0066
:1062a0009e0390008700e9000041eb0082f2780035
:1062b0008001eb000d00e00002003d008d06ea00c9
:1062c000130020002200200001037800fe0a900045
:1062d0008e239000000478000a0037000103780044
:1062e000a4002000110009008406d80001027800f3
:1062f000800678000443b00084737b000201e9004b
:106300008502e9008600e9000d00e000f3ff3a0095
:106310000200e000f1ff3c00750f9800072798008d
:106320000800780001824300b2c2b3000300e0001d
:1063300001003200d2c2b300024a78000101e90034
:106340008e219000828041008e4a90000502fb0061
:106350001404b10053c6b300f90f520001003e000f
:1063600053c4b300834878007e0b90000683e90095
:10637000760f9800820f560001003d0031000700a3
:10638000ce0b900063806300e20f500015003a00ce
:106390007e0890000000e000120034000e20900003
:1063a0001bf507008e219000040037007e09900045
:1063b00082804100e37078000000e900de0a90006e
:1063c000850f5000f9ff3d0003279800058041002c
:1063d0007e09900001032000a3f407000003eb00f6
:1063e000360f98000e20900009f507004e0a900025
:1063f000be099000000178008e2090002e009000d1
:10640000b7f707004f06be004f05be004f04be00a1
:106410000080fa000000060010002000e48f460013
:106420002ffe3d00001f980057c6b300475f98003d
:106430004ffe37000d00e00032fe3500001f9800cf
:1064400042fe3700881f78000004780008007800ba
:1064500003000700080078004f04780000000600e1
:106460000101780080017800008268000408a30020
:106470000500320013003700324078008059780060
:106480000004e00014003200030278000208a300b8
:10649000f9ff3a0003007800010037000318780084
:1064a00082007800b2017800f5ef2f00838242006d
:1064b0000382ea00048262000508280005026200e7
:1064c000f6ff32000002780031417800025878006f
:1064d0000204e000fbff3a00040078000000060020
:1064e0008f1fd1008f0207008f87e9000000e000b6
:1064f00000000600809feb008a0207008f87e900fa
:106500000000e00000000600810378004900070059
:106510000001be006000b8000478a30013003a0038
:106520006220e10015003e000d0039008301d1001a
:106530000281d3008180d3008301d1000281d30086
:106540008180d3008301d1000281d3008180d300f8
:106550000538b000c42add00f300b2008381720068
:1065600007f0a70003f0a0000000060083ff27004b
:10657000020020006110b900f9ff370003ff270077
:10658000f7ff37001400fa00889fbe008a9fbe0004
:106590008c9fbe000004be000205be0068004700dc
:1065a0000a90be000890be00990207000070a70084
:1065b0000bf0a100304320009e0290008082520028
:1065c000b0fe2f000028e10011003d00b0fc2f00bc
:1065d0000028e100150034001e0990008e0890008c
:1065e0007e0090000501b0000201d1008180d3003f
:1065f0000080d3008502e800fbff3a000b00e000ba
:10660000be023b0060001000e0801800bb023700b3
:10661000f0ff2f00f1ff27000b00e000b7023b0066
:106620000100280000002000b40237006000b8001c
:10663000b2023700c70ade00f107b200f50fb20060
:1066400008003200e1cf4200020032000170a000d9
:1066500024000500810f70000100320004080500cd
:1066600044000500810f700002003a00140005008c
:106670008502e9000000400081c04800fcff3b00ab
:106680000170a00024000500020ab900001bb90037
:106690000200b800810042008100430000000600b3
:1066a0008c9fbe008a9fbe00889fbe00ca01070063
:1066b0000bf0a200040037008c9fbe008a9fbe0032
:1066c000889fbe00c40107000c48e1000b003a009f
:1066d0000c40e100020032008b010700400037004f
:1066e0008b066d003e0032000af0a100f30120008d
:1066f000f2ff2f006110b900390037000c40e100b3
:10670000370032000940e100010036007e01070039
:106710008a856d00cf5dde000b0575000006eb007d
:106720008804fd0089045400010032007d01070047
:106730000a04e00011003a000800e00028003200de
:106740000400400085804800060149008781490017
:106750000358a300180032008301d1000281d30046
:106760008180d3000080d3000c86d3000100390063
:10677000610676000804e8001800370004005000a5
:1067800085805800060159008781590006003100b4
:106790000af0a2000c06ea0060001800e080180071
:1067a00060011900e081190003003a000004eb00c9
:1067b0000005eb000a0037000348a30007003a0079
:1067c0000c06460000004800818048000201490094
:1067d000838149000804e900f7ff3700af01370063
:1067e000c90137008c9fbe008a9fbe00889fbe00f3
:1067f000790107000b056d000940e1000a003a002d
:106800000800e000020032000c40e10006003a00ff
:106810000af0a1000c047800f3012000f2ff2f0021
:106820006110b9009d0037000c40e1009b00320070
:106830000800e000990032000c48e10002003a0034
:106840000004eb00030037000900e00004003a00f8
:106850000c0478006000b8006011b8008f003700a9
:106860000348a30006003a00000040008180480071
:1068700002014900838149000804e900f8ff37005c
:106880000748a30006003a000402420085824a003d
:1068900006034b0087834b008904e900f8ff3700ab
:1068a000fd3f20008d845400090454008a1f7800a5
:1068b000881f7800000478008104780002057800c1
:1068c000830578006000b8006011b8000d04200056
:1068d000050037000804440089844c000a054d0077
:1068e0008b854d00080031000404540085845c0051
:1068f00006055d0087855d008381d2008d06d3008b
:10690000f4ff3b00070037000404440085844c007a
:1069100006054d0087854d008381d2008d06d3008a
:10692000ecff3b000804440089844c000a054d003c
:106930008b854d00080031000404540085845c0000
:1069400006055d0087855d000281d2008d06d300bb
:10695000f4ff3b00070037000404440085844c002a
:1069600006054d0087854d000281d2008d06d300bb
:10697000ecff3b000804440089844c000a054d00ec
:106980008b854d00080031000404540085845c00b0
:1069900006055d0087855d008180d2008d06d300ed
:1069a000f4ff3b00070037000404440085844c00da
:1069b00006054d0087854d008180d2008d06d300ed
:1069c000ecff3b000804440089844c000a054d009c
:1069d0008b854d00080031000404540085845c0060
:1069e00006055d0087855d000080d2008d06d3001e
:1069f000f4ff3b00070037000404440085844c008a
:106a000006054d0087854d000080d2008d06d3001d
:106a1000ecff3b000b00e00004003d0004044400d8
:106a200085844c0006054d0087854d000006eb006f
:106a30008301d1000281d3008180d3000080d30084
:106a40000c86d3008301d1000281d3008180d30062
:106a50000080d3000c86d300890474008b05750078
:106a60008b84740001003200610676004f047800c8
:106a70004f0578000348a30007003a000c064600c3
:106a800000004800818048000201490083814900dc
:106a90000804e900f7ff3700000137001a0137004a
:106aa0008c9fbe008a9fbe00889fbe00ca00070060
:106ab0000b056d008a0578000c40e10008003a00e3
:106ac0000900e00082003a000af0a1000c047800fe
:106ad000f3012000f2ff2f006110b9007c003700a5
:106ae0000c48e10004003a00870007000900e000bc
:106af00077003a00f4ff37000800e000740032002d
:106b00000900e00002003a007f0007007000370033
:106b1000ed3f20008d845400090444008a1f780052
:106b2000881f7800871f7800861f7800851f7800ef
:106b3000841f7800cb19dd00c515de008b85710040
:106b40004b11dd00450dde000a057100cb08dd00ac
:106b5000c504de00898470004b04dd000440b800e9
:106b60000546b8008c80400060814e00044eb8009d
:106b70008c8040000d0149008001eb000318ad003e
:106b80000456b8000c0141008d8149000002eb0061
:106b90000420ad000646b8000c0141008d8149007b
:106ba00060024a00054eb8000c0141008d81490089
:106bb00060024a000556b8008c8141000d024a006f
:106bc0008002eb000528ad000746b8008c8141002b
:106bd0000d024a00e0824a00064eb8008c81410056
:106be0000d024a00e0824a004f0678000c5eb800b1
:106bf0008c8141000d024a00e0824a000656b8002e
:106c00000c0242008d824a000003eb000630ad000a
:106c1000074eb8000c0242008d824a0060034b0010
:106c20004f0678000c5eb8000c0242008d824a00cc
:106c300060034b000756b8008c8242000d034b00e6
:106c40008003eb000738ad004f0678000c5eb800fb
:106c50008c8242000d034b00e0834b004f0678000e
:106c60000c5eb8000c0343008d834b004f0478008a
:106c70004f0578000748a3000a003a0000004000d2
:106c800081804800020149008381490004024a00d2
:106c900085824a0006034b0087834b000804e90005
:106ca000f4ff370003067800808070008280700057
:106cb0000100320061067600870178000601780045
:106cc0008500780004007800880478007800370098
:106cd0008d0037008c06460002003a000000a60036
:106ce0000000060060004800e080480060014900a4
:106cf000e08149000350a600000006008301d10096
:106d00000804e800000006000002fd008102fd000a
:106d10000203fd008303fd008804fd008a05fd00d9
:106d2000000006007048e1001a0039007d032000d1
:106d30000d48e1000a0039008105700083067100ea
:106d40008c8575008d8575000006eb000cd8e7007a
:106d5000610676006000b8006011b800000006000f
:106d60007048e1000b0039008c05780000067800bf
:106d70000100780082007800030178008001eb00b8
:106d800003d8e70061067600f0845400f4ff3a006f
:106d9000000006006160e1000c48ad00f0851400c1
:106da0008b06dd000966de000d0676008b0edd0029
:106db0000900de000d0070008b16dd008908de0082
:106dc0008d8070008b1edd000911de000d01710049
:106dd0008919de00000006000d002800fc7f20005d
:106de0000d856100441cde00ef8161000c0464002d
:106df000010032000340a0008d856300c43cde002a
:106e0000ef8363008c846400010032000740a0001f
:106e10000c40e10006003a00ef86610082867600b1
:106e200081867600808676000100320018003700e7
:106e30000c48e10007003a00ef8663008686760082
:106e4000858676008486760002003200aeff070059
:106e50000f0037000348a30005003a0081067000c8
:106e60008286760083867600010032000804e800fe
:106e70000748a30005003a00850672008686760062
:106e800087867600010032008904e80000000600d1
:106e9000cf047800cf0578001b003700000278008f
:106ea0008102780002037800830378008804780068
:106eb0000cf0a70087ff0700fd7f20000d40e100d8
:106ec000040035000d0478006000b8006011b800bf
:106ed0000d0037000800e0000b003c0004007800c3
:106ee000850078000601780087017800e1841400ad
:106ef0008cff07000cf0a70076ff07000004eb00f2
:106f00000340a7000804e8004444dd006fc56100a9
:106f1000880175004f04be004f05be004f06be003d
:106f200000000600889fbe008a9fbe008c9fbe00a6
:106f30000404be000605be00809fbe00829fbe0006
:106f400021000700040678000800be000a01be0008
:106f50001d000700840678004f03be004f02be00ec
:106f60008d4f76007fb0970013003300f0ff2f00a5
:106f70008b8f6b0006003b000d0666000c00a7001f
:106f80000a00370007f0a600100020000a003700b2
:106f9000880f5200898f5a008a0f5b008b8f5b002d
:106fa000030039001000200001003e000000200016
:106fb00007f0a7000000ea004f06be004f05be0024
:106fc0004f04be000000060005ff27000582610097
:106fd000070032000428e10001003200240005000f
:106fe0000600070001003a004400050004080500ff
:106ff00002000700f9ff3a00140005006f826100eb
:107000008102700085027100850272000000060096
:10701000800078005002be005003be004439de00fc
:10702000f700b200f37f2000030161000900320085
:107030000218e10016003a00850172008301730016
:10704000838173000008200015003a0040002000f2
:107050001300370085017200830173008381730080
:1070600005003a0004a8be0006a8be0010002000db
:107070000b0037000201e9000402420085824a0049
:1070800006034b0087834b000748a300f9ff32003b
:107090000740a00004a8be0006a8be0020002000f3
:1070a00080009800920098000000060068044700e5
:1070b0000294be000094be00fc0447008694be000b
:1070c0008494be0009007800d1ff07000800780012
:1070d000cfff070099007800814f70000b003b0044
:1070e0000800be000a0007004f00b100030037008f
:1070f000f3ff2700f2ff2f006110b9004f06be001a
:107100004f05be004f04be000080fa0000000600dc
:10711000e48240001078a3000700320064024000bf
:107120001178a3003400be001401be000400320038
:107130000330a700000006003500be001501be00a8
:107140000330a000000006001800fa00889fbe006f
:107150008a9fbe008c1f78000004be000205be009e
:107160000802be000a03be00443ade00f07f2000a1
:107170000006620020432000800f560067003c009c
:107180006022b8006033b8000800be00d4fc0700dd
:107190000000e000610032000802be000a03be00e9
:1071a000b4b79f00c5b79f00d6b79f00e7b79f0051
:1071b000e00f5200e08f5a00e00f5b00e08f5b00b1
:1071c0000b003d006022b8000600200007332400b9
:1071d0000800be000a01be0031fd07006022b800b1
